{
  "contractName": "lottery",
  "abi": [
    {
      "inputs": [],
      "stateMutability": "nonpayable",
      "type": "constructor"
    },
    {
      "anonymous": false,
      "inputs": [
        {
          "indexed": true,
          "internalType": "address",
          "name": "owner",
          "type": "address"
        },
        {
          "indexed": true,
          "internalType": "address",
          "name": "spender",
          "type": "address"
        },
        {
          "indexed": false,
          "internalType": "uint256",
          "name": "value",
          "type": "uint256"
        }
      ],
      "name": "Approval",
      "type": "event"
    },
    {
      "anonymous": false,
      "inputs": [
        {
          "indexed": true,
          "internalType": "address",
          "name": "previousOwner",
          "type": "address"
        },
        {
          "indexed": true,
          "internalType": "address",
          "name": "newOwner",
          "type": "address"
        }
      ],
      "name": "OwnershipTransferred",
      "type": "event"
    },
    {
      "anonymous": false,
      "inputs": [
        {
          "indexed": true,
          "internalType": "address",
          "name": "from",
          "type": "address"
        },
        {
          "indexed": true,
          "internalType": "address",
          "name": "to",
          "type": "address"
        },
        {
          "indexed": false,
          "internalType": "uint256",
          "name": "value",
          "type": "uint256"
        }
      ],
      "name": "Transfer",
      "type": "event"
    },
    {
      "inputs": [
        {
          "internalType": "address",
          "name": "owner",
          "type": "address"
        },
        {
          "internalType": "address",
          "name": "spender",
          "type": "address"
        }
      ],
      "name": "allowance",
      "outputs": [
        {
          "internalType": "uint256",
          "name": "",
          "type": "uint256"
        }
      ],
      "stateMutability": "view",
      "type": "function",
      "constant": true
    },
    {
      "inputs": [
        {
          "internalType": "address",
          "name": "spender",
          "type": "address"
        },
        {
          "internalType": "uint256",
          "name": "amount",
          "type": "uint256"
        }
      ],
      "name": "approve",
      "outputs": [
        {
          "internalType": "bool",
          "name": "",
          "type": "bool"
        }
      ],
      "stateMutability": "nonpayable",
      "type": "function"
    },
    {
      "inputs": [
        {
          "internalType": "address",
          "name": "account",
          "type": "address"
        }
      ],
      "name": "balanceOf",
      "outputs": [
        {
          "internalType": "uint256",
          "name": "",
          "type": "uint256"
        }
      ],
      "stateMutability": "view",
      "type": "function",
      "constant": true
    },
    {
      "inputs": [],
      "name": "decimals",
      "outputs": [
        {
          "internalType": "uint8",
          "name": "",
          "type": "uint8"
        }
      ],
      "stateMutability": "view",
      "type": "function",
      "constant": true
    },
    {
      "inputs": [
        {
          "internalType": "address",
          "name": "spender",
          "type": "address"
        },
        {
          "internalType": "uint256",
          "name": "subtractedValue",
          "type": "uint256"
        }
      ],
      "name": "decreaseAllowance",
      "outputs": [
        {
          "internalType": "bool",
          "name": "",
          "type": "bool"
        }
      ],
      "stateMutability": "nonpayable",
      "type": "function"
    },
    {
      "inputs": [
        {
          "internalType": "address",
          "name": "spender",
          "type": "address"
        },
        {
          "internalType": "uint256",
          "name": "addedValue",
          "type": "uint256"
        }
      ],
      "name": "increaseAllowance",
      "outputs": [
        {
          "internalType": "bool",
          "name": "",
          "type": "bool"
        }
      ],
      "stateMutability": "nonpayable",
      "type": "function"
    },
    {
      "inputs": [],
      "name": "name",
      "outputs": [
        {
          "internalType": "string",
          "name": "",
          "type": "string"
        }
      ],
      "stateMutability": "view",
      "type": "function",
      "constant": true
    },
    {
      "inputs": [],
      "name": "nft",
      "outputs": [
        {
          "internalType": "address",
          "name": "",
          "type": "address"
        }
      ],
      "stateMutability": "view",
      "type": "function",
      "constant": true
    },
    {
      "inputs": [],
      "name": "owner",
      "outputs": [
        {
          "internalType": "address",
          "name": "",
          "type": "address"
        }
      ],
      "stateMutability": "view",
      "type": "function",
      "constant": true
    },
    {
      "inputs": [],
      "name": "priceTicket",
      "outputs": [
        {
          "internalType": "uint256",
          "name": "",
          "type": "uint256"
        }
      ],
      "stateMutability": "view",
      "type": "function",
      "constant": true
    },
    {
      "inputs": [],
      "name": "renounceOwnership",
      "outputs": [],
      "stateMutability": "nonpayable",
      "type": "function"
    },
    {
      "inputs": [],
      "name": "symbol",
      "outputs": [
        {
          "internalType": "string",
          "name": "",
          "type": "string"
        }
      ],
      "stateMutability": "view",
      "type": "function",
      "constant": true
    },
    {
      "inputs": [],
      "name": "totalSupply",
      "outputs": [
        {
          "internalType": "uint256",
          "name": "",
          "type": "uint256"
        }
      ],
      "stateMutability": "view",
      "type": "function",
      "constant": true
    },
    {
      "inputs": [
        {
          "internalType": "address",
          "name": "to",
          "type": "address"
        },
        {
          "internalType": "uint256",
          "name": "amount",
          "type": "uint256"
        }
      ],
      "name": "transfer",
      "outputs": [
        {
          "internalType": "bool",
          "name": "",
          "type": "bool"
        }
      ],
      "stateMutability": "nonpayable",
      "type": "function"
    },
    {
      "inputs": [
        {
          "internalType": "address",
          "name": "from",
          "type": "address"
        },
        {
          "internalType": "address",
          "name": "to",
          "type": "address"
        },
        {
          "internalType": "uint256",
          "name": "amount",
          "type": "uint256"
        }
      ],
      "name": "transferFrom",
      "outputs": [
        {
          "internalType": "bool",
          "name": "",
          "type": "bool"
        }
      ],
      "stateMutability": "nonpayable",
      "type": "function"
    },
    {
      "inputs": [
        {
          "internalType": "address",
          "name": "newOwner",
          "type": "address"
        }
      ],
      "name": "transferOwnership",
      "outputs": [],
      "stateMutability": "nonpayable",
      "type": "function"
    },
    {
      "inputs": [
        {
          "internalType": "address",
          "name": "",
          "type": "address"
        }
      ],
      "name": "userContract",
      "outputs": [
        {
          "internalType": "address",
          "name": "",
          "type": "address"
        }
      ],
      "stateMutability": "view",
      "type": "function",
      "constant": true
    },
    {
      "inputs": [],
      "name": "winner",
      "outputs": [
        {
          "internalType": "address",
          "name": "",
          "type": "address"
        }
      ],
      "stateMutability": "view",
      "type": "function",
      "constant": true
    },
    {
      "inputs": [
        {
          "internalType": "address",
          "name": "_account",
          "type": "address"
        }
      ],
      "name": "balanceTokens",
      "outputs": [
        {
          "internalType": "uint256",
          "name": "",
          "type": "uint256"
        }
      ],
      "stateMutability": "view",
      "type": "function",
      "constant": true
    },
    {
      "inputs": [],
      "name": "balanceTokensSC",
      "outputs": [
        {
          "internalType": "uint256",
          "name": "",
          "type": "uint256"
        }
      ],
      "stateMutability": "view",
      "type": "function",
      "constant": true
    },
    {
      "inputs": [],
      "name": "balanceEthersSC",
      "outputs": [
        {
          "internalType": "uint256",
          "name": "",
          "type": "uint256"
        }
      ],
      "stateMutability": "view",
      "type": "function",
      "constant": true
    },
    {
      "inputs": [
        {
          "internalType": "uint256",
          "name": "_newTokens",
          "type": "uint256"
        }
      ],
      "name": "mint",
      "outputs": [],
      "stateMutability": "nonpayable",
      "type": "function"
    },
    {
      "inputs": [
        {
          "internalType": "address",
          "name": "_account",
          "type": "address"
        }
      ],
      "name": "usersInfo",
      "outputs": [
        {
          "internalType": "address",
          "name": "",
          "type": "address"
        }
      ],
      "stateMutability": "view",
      "type": "function",
      "constant": true
    },
    {
      "inputs": [
        {
          "internalType": "uint256",
          "name": "_numTokens",
          "type": "uint256"
        }
      ],
      "name": "buyTokens",
      "outputs": [],
      "stateMutability": "payable",
      "type": "function",
      "payable": true
    },
    {
      "inputs": [
        {
          "internalType": "uint256",
          "name": "_numTokens",
          "type": "uint256"
        }
      ],
      "name": "returnTokens",
      "outputs": [],
      "stateMutability": "payable",
      "type": "function",
      "payable": true
    },
    {
      "inputs": [
        {
          "internalType": "uint256",
          "name": "_numTickets",
          "type": "uint256"
        }
      ],
      "name": "buyTickets",
      "outputs": [],
      "stateMutability": "nonpayable",
      "type": "function"
    },
    {
      "inputs": [
        {
          "internalType": "address",
          "name": "_owner",
          "type": "address"
        }
      ],
      "name": "Boletos",
      "outputs": [
        {
          "internalType": "uint256[]",
          "name": "",
          "type": "uint256[]"
        }
      ],
      "stateMutability": "view",
      "type": "function",
      "constant": true
    },
    {
      "inputs": [],
      "name": "generateWinner",
      "outputs": [],
      "stateMutability": "nonpayable",
      "type": "function"
    }
  ],
  "bytecode": "0x608060405260056009556000600c553480156200001b57600080fd5b506040518060400160405280600781526020017f4c6f7474657279000000000000000000000000000000000000000000000000008152506040518060400160405280600281526020017f4c540000000000000000000000000000000000000000000000000000000000008152508160039080519060200190620000a0929190620003a8565b508060049080519060200190620000b9929190620003a8565b505050620000dc620000d06200016260201b60201c565b6200016a60201b60201c565b620000f0306113886200023060201b60201c565b604051620000fe9062000439565b604051809103906000f0801580156200011b573d6000803e3d6000fd5b50600660006101000a81548173ffffffffffffffffffffffffffffffffffffffff021916908373ffffffffffffffffffffffffffffffffffffffff16021790555062000612565b600033905090565b6000600560009054906101000a900473ffffffffffffffffffffffffffffffffffffffff16905081600560006101000a81548173ffffffffffffffffffffffffffffffffffffffff021916908373ffffffffffffffffffffffffffffffffffffffff1602179055508173ffffffffffffffffffffffffffffffffffffffff168173ffffffffffffffffffffffffffffffffffffffff167f8be0079c531659141344cd1fd0a4f28419497f9722a3daafe3b4186f6b6457e060405160405180910390a35050565b600073ffffffffffffffffffffffffffffffffffffffff168273ffffffffffffffffffffffffffffffffffffffff161415620002a3576040517f08c379a00000000000000000000000000000000000000000000000000000000081526004016200029a90620004c7565b60405180910390fd5b620002b7600083836200039e60201b60201c565b8060026000828254620002cb919062000522565b92505081905550806000808473ffffffffffffffffffffffffffffffffffffffff1673ffffffffffffffffffffffffffffffffffffffff168152602001908152602001600020600082825401925050819055508173ffffffffffffffffffffffffffffffffffffffff16600073ffffffffffffffffffffffffffffffffffffffff167fddf252ad1be2c89b69c2b068fc378daa952ba7f163c4a11628f55a4df523b3ef836040516200037e919062000590565b60405180910390a36200039a60008383620003a360201b60201c565b5050565b505050565b505050565b828054620003b690620005dc565b90600052602060002090601f016020900481019282620003da576000855562000426565b82601f10620003f557805160ff191683800117855562000426565b8280016001018555821562000426579182015b828111156200042557825182559160200191906001019062000408565b5b50905062000435919062000447565b5090565b6129388062003c8c83390190565b5b808211156200046257600081600090555060010162000448565b5090565b600082825260208201905092915050565b7f45524332303a206d696e7420746f20746865207a65726f206164647265737300600082015250565b6000620004af601f8362000466565b9150620004bc8262000477565b602082019050919050565b60006020820190508181036000830152620004e281620004a0565b9050919050565b6000819050919050565b7f4e487b7100000000000000000000000000000000000000000000000000000000600052601160045260246000fd5b60006200052f82620004e9565b91506200053c83620004e9565b9250827fffffffffffffffffffffffffffffffffffffffffffffffffffffffffffffffff03821115620005745762000573620004f3565b5b828201905092915050565b6200058a81620004e9565b82525050565b6000602082019050620005a760008301846200057f565b92915050565b7f4e487b7100000000000000000000000000000000000000000000000000000000600052602260045260246000fd5b60006002820490506001821680620005f557607f821691505b602082108114156200060c576200060b620005ad565b5b50919050565b61366a80620006226000396000f3fe608060405260043610620001e25760003560e01c806370a082311162000103578063a457c2d71162000097578063dd62ed3e116200006d578063dd62ed3e14620006cb578063dfbf53ae146200070f578063f2fde38b146200073f578063f9b4527a146200076d57620001e2565b8063a457c2d71462000613578063a9059cbb1462000657578063b934c384146200069b57620001e2565b80638da5cb5b11620000d95780638da5cb5b146200055557806392ef10d8146200058557806395d89b4114620005b5578063a0712d6814620005e557620001e2565b806370a0823114620004b3578063715018a614620004f75780638079e678146200051157620001e2565b80633610724e116200017b57806347ccca02116200015157806347ccca0214620003cb5780635645167114620003fb5780635d0eaaaf146200043f57806364c16534146200048357620001e2565b80633610724e14620003475780633950935114620003675780633ae1786f14620003ab57620001e2565b8063188af65711620001bd578063188af657146200028b57806323b872dd14620002a55780632f36663714620002e9578063313ce567146200031757620001e2565b806306fdde0314620001e7578063095ea7b3146200021757806318160ddd146200025b575b600080fd5b348015620001f457600080fd5b50620001ff620007b1565b6040516200020e919062001e9b565b60405180910390f35b3480156200022457600080fd5b506200024360048036038101906200023d919062001f64565b6200084b565b60405162000252919062001fc8565b60405180910390f35b3480156200026857600080fd5b506200027362000872565b60405162000282919062001ff6565b60405180910390f35b3480156200029857600080fd5b50620002a36200087c565b005b348015620002b257600080fd5b50620002d16004803603810190620002cb919062002013565b62000aa5565b604051620002e0919062001fc8565b60405180910390f35b348015620002f657600080fd5b506200031560048036038101906200030f91906200206f565b62000ada565b005b3480156200032457600080fd5b506200032f62000d83565b6040516200033e9190620020bf565b60405180910390f35b6200036560048036038101906200035f91906200206f565b62000d8c565b005b3480156200037457600080fd5b506200039360048036038101906200038d919062001f64565b62000f42565b604051620003a2919062001fc8565b60405180910390f35b620003c96004803603810190620003c391906200206f565b62000f81565b005b348015620003d857600080fd5b50620003e362001079565b604051620003f29190620020ed565b60405180910390f35b3480156200040857600080fd5b506200042760048036038101906200042191906200210a565b6200109f565b6040516200043691906200220a565b60405180910390f35b3480156200044c57600080fd5b506200046b60048036038101906200046591906200210a565b62001138565b6040516200047a9190620020ed565b60405180910390f35b3480156200049057600080fd5b506200049b620011a1565b604051620004aa919062001ff6565b60405180910390f35b348015620004c057600080fd5b50620004df6004803603810190620004d991906200210a565b620011a7565b604051620004ee919062001ff6565b60405180910390f35b3480156200050457600080fd5b506200050f620011ef565b005b3480156200051e57600080fd5b506200053d60048036038101906200053791906200210a565b62001207565b6040516200054c9190620020ed565b60405180910390f35b3480156200056257600080fd5b506200056d6200123a565b6040516200057c9190620020ed565b60405180910390f35b3480156200059257600080fd5b506200059d62001264565b604051620005ac919062001ff6565b60405180910390f35b348015620005c257600080fd5b50620005cd62001276565b604051620005dc919062001e9b565b60405180910390f35b348015620005f257600080fd5b506200061160048036038101906200060b91906200206f565b62001310565b005b3480156200062057600080fd5b506200063f600480360381019062000639919062001f64565b62001329565b6040516200064e919062001fc8565b60405180910390f35b3480156200066457600080fd5b506200068360048036038101906200067d919062001f64565b620013a9565b60405162000692919062001fc8565b60405180910390f35b348015620006a857600080fd5b50620006b3620013d0565b604051620006c2919062001ff6565b60405180910390f35b348015620006d857600080fd5b50620006f76004803603810190620006f191906200222e565b620013ed565b60405162000706919062001ff6565b60405180910390f35b3480156200071c57600080fd5b506200072762001474565b604051620007369190620020ed565b60405180910390f35b3480156200074c57600080fd5b506200076b60048036038101906200076591906200210a565b6200149a565b005b3480156200077a57600080fd5b506200079960048036038101906200079391906200210a565b62001525565b604051620007a8919062001ff6565b60405180910390f35b606060038054620007c290620022a4565b80601f0160208091040260200160405190810160405280929190818152602001828054620007f090620022a4565b8015620008415780601f10620008155761010080835404028352916020019162000841565b820191906000526020600020905b8154815290600101906020018083116200082357829003601f168201915b5050505050905090565b6000806200085862001539565b90506200086781858562001541565b600191505092915050565b6000600254905090565b6200088662001714565b6000600d80549050905060008111620008d6576040517f08c379a0000000000000000000000000000000000000000000000000000000008152600401620008cd906200232a565b60405180910390fd5b60008142604051602001620008ec919062002371565b6040516020818303038152906040528051906020012060001c620009119190620023bd565b90506000600d82815481106200092c576200092b620023f5565b5b90600052602060002001549050600b600082815260200190815260200160002060009054906101000a900473ffffffffffffffffffffffffffffffffffffffff16600760006101000a81548173ffffffffffffffffffffffffffffffffffffffff021916908373ffffffffffffffffffffffffffffffffffffffff160217905550600760009054906101000a900473ffffffffffffffffffffffffffffffffffffffff1673ffffffffffffffffffffffffffffffffffffffff166108fc6064605f47620009fa919062002453565b62000a069190620024b4565b9081150290604051600060405180830381858888f1935050505015801562000a32573d6000803e3d6000fd5b5062000a3d6200123a565b73ffffffffffffffffffffffffffffffffffffffff166108fc606460054762000a67919062002453565b62000a739190620024b4565b9081150290604051600060405180830381858888f1935050505015801562000a9f573d6000803e3d6000fd5b50505050565b60008062000ab262001539565b905062000ac185828562001799565b62000ace8585856200182d565b60019150509392505050565b60006009548262000aec919062002453565b905062000af93362001525565b81111562000b3e576040517f08c379a000000000000000000000000000000000000000000000000000000000815260040162000b359062002562565b60405180910390fd5b62000b4b3330836200182d565b60005b8281101562000d7e5760006127104233600c5460405160200162000b7593929190620025d4565b6040516020818303038152906040528051906020012060001c62000b9a9190620023bd565b9050600c600081548092919062000bb19062002617565b9190505550600a60003373ffffffffffffffffffffffffffffffffffffffff1673ffffffffffffffffffffffffffffffffffffffff168152602001908152602001600020819080600181540180825580915050600190039060005260206000200160009091909190915055600d81908060018154018082558091505060019003906000526020600020016000909190919091505533600b600083815260200190815260200160002060006101000a81548173ffffffffffffffffffffffffffffffffffffffff021916908373ffffffffffffffffffffffffffffffffffffffff160217905550600860003373ffffffffffffffffffffffffffffffffffffffff1673ffffffffffffffffffffffffffffffffffffffff16815260200190815260200160002060009054906101000a900473ffffffffffffffffffffffffffffffffffffffff1673ffffffffffffffffffffffffffffffffffffffff1663120e852333836040518363ffffffff1660e01b815260040162000d3392919062002665565b600060405180830381600087803b15801562000d4e57600080fd5b505af115801562000d63573d6000803e3d6000fd5b5050505050808062000d759062002617565b91505062000b4e565b505050565b60006012905090565b600073ffffffffffffffffffffffffffffffffffffffff16600860003373ffffffffffffffffffffffffffffffffffffffff1673ffffffffffffffffffffffffffffffffffffffff16815260200190815260200160002060009054906101000a900473ffffffffffffffffffffffffffffffffffffffff1673ffffffffffffffffffffffffffffffffffffffff16141562000e2c5762000e2b62001ab4565b5b600062000e398262001b98565b90508034101562000e81576040517f08c379a000000000000000000000000000000000000000000000000000000000815260040162000e789062002708565b60405180910390fd5b600062000e8d62001264565b90508083111562000ed5576040517f08c379a000000000000000000000000000000000000000000000000000000000815260040162000ecc906200277a565b60405180910390fd5b6000823462000ee591906200279c565b90503373ffffffffffffffffffffffffffffffffffffffff166108fc829081150290604051600060405180830381858888f1935050505015801562000f2e573d6000803e3d6000fd5b5062000f3c3033866200182d565b50505050565b60008062000f4f62001539565b905062000f7681858562000f648589620013ed565b62000f709190620027d7565b62001541565b600191505092915050565b6000811162000fc7576040517f08c379a000000000000000000000000000000000000000000000000000000000815260040162000fbe90620028aa565b60405180910390fd5b62000fd23362001525565b81111562001017576040517f08c379a00000000000000000000000000000000000000000000000000000000081526004016200100e9062002942565b60405180910390fd5b620010243330836200182d565b3373ffffffffffffffffffffffffffffffffffffffff166108fc620010498362001b98565b9081150290604051600060405180830381858888f1935050505015801562001075573d6000803e3d6000fd5b5050565b600660009054906101000a900473ffffffffffffffffffffffffffffffffffffffff1681565b6060600a60008373ffffffffffffffffffffffffffffffffffffffff1673ffffffffffffffffffffffffffffffffffffffff1681526020019081526020016000208054806020026020016040519081016040528092919081815260200182805480156200112c57602002820191906000526020600020905b81548152602001906001019080831162001117575b50505050509050919050565b6000600860008373ffffffffffffffffffffffffffffffffffffffff1673ffffffffffffffffffffffffffffffffffffffff16815260200190815260200160002060009054906101000a900473ffffffffffffffffffffffffffffffffffffffff169050919050565b60095481565b60008060008373ffffffffffffffffffffffffffffffffffffffff1673ffffffffffffffffffffffffffffffffffffffff168152602001908152602001600020549050919050565b620011f962001714565b62001205600062001bb7565b565b60086020528060005260406000206000915054906101000a900473ffffffffffffffffffffffffffffffffffffffff1681565b6000600560009054906101000a900473ffffffffffffffffffffffffffffffffffffffff16905090565b60006200127130620011a7565b905090565b6060600480546200128790620022a4565b80601f0160208091040260200160405190810160405280929190818152602001828054620012b590620022a4565b8015620013065780601f10620012da5761010080835404028352916020019162001306565b820191906000526020600020905b815481529060010190602001808311620012e857829003601f168201915b5050505050905090565b6200131a62001714565b62001326308262001c7d565b50565b6000806200133662001539565b90506000620013468286620013ed565b9050838110156200138e576040517f08c379a00000000000000000000000000000000000000000000000000000000081526004016200138590620029da565b60405180910390fd5b6200139d828686840362001541565b60019250505092915050565b600080620013b662001539565b9050620013c58185856200182d565b600191505092915050565b6000670de0b6b3a764000047620013e89190620024b4565b905090565b6000600160008473ffffffffffffffffffffffffffffffffffffffff1673ffffffffffffffffffffffffffffffffffffffff16815260200190815260200160002060008373ffffffffffffffffffffffffffffffffffffffff1673ffffffffffffffffffffffffffffffffffffffff16815260200190815260200160002054905092915050565b600760009054906101000a900473ffffffffffffffffffffffffffffffffffffffff1681565b620014a462001714565b600073ffffffffffffffffffffffffffffffffffffffff168173ffffffffffffffffffffffffffffffffffffffff16141562001517576040517f08c379a00000000000000000000000000000000000000000000000000000000081526004016200150e9062002a72565b60405180910390fd5b620015228162001bb7565b50565b60006200153282620011a7565b9050919050565b600033905090565b600073ffffffffffffffffffffffffffffffffffffffff168373ffffffffffffffffffffffffffffffffffffffff161415620015b4576040517f08c379a0000000000000000000000000000000000000000000000000000000008152600401620015ab9062002b0a565b60405180910390fd5b600073ffffffffffffffffffffffffffffffffffffffff168273ffffffffffffffffffffffffffffffffffffffff16141562001627576040517f08c379a00000000000000000000000000000000000000000000000000000000081526004016200161e9062002ba2565b60405180910390fd5b80600160008573ffffffffffffffffffffffffffffffffffffffff1673ffffffffffffffffffffffffffffffffffffffff16815260200190815260200160002060008473ffffffffffffffffffffffffffffffffffffffff1673ffffffffffffffffffffffffffffffffffffffff168152602001908152602001600020819055508173ffffffffffffffffffffffffffffffffffffffff168373ffffffffffffffffffffffffffffffffffffffff167f8c5be1e5ebec7d5bd14f71427d1e84f3dd0314c0f7b2291e5b200ac8c7c3b9258360405162001707919062001ff6565b60405180910390a3505050565b6200171e62001539565b73ffffffffffffffffffffffffffffffffffffffff166200173e6200123a565b73ffffffffffffffffffffffffffffffffffffffff161462001797576040517f08c379a00000000000000000000000000000000000000000000000000000000081526004016200178e9062002c14565b60405180910390fd5b565b6000620017a78484620013ed565b90507fffffffffffffffffffffffffffffffffffffffffffffffffffffffffffffffff811462001827578181101562001817576040517f08c379a00000000000000000000000000000000000000000000000000000000081526004016200180e9062002c86565b60405180910390fd5b62001826848484840362001541565b5b50505050565b600073ffffffffffffffffffffffffffffffffffffffff168373ffffffffffffffffffffffffffffffffffffffff161415620018a0576040517f08c379a0000000000000000000000000000000000000000000000000000000008152600401620018979062002d1e565b60405180910390fd5b600073ffffffffffffffffffffffffffffffffffffffff168273ffffffffffffffffffffffffffffffffffffffff16141562001913576040517f08c379a00000000000000000000000000000000000000000000000000000000081526004016200190a9062002db6565b60405180910390fd5b6200192083838362001ddf565b60008060008573ffffffffffffffffffffffffffffffffffffffff1673ffffffffffffffffffffffffffffffffffffffff16815260200190815260200160002054905081811015620019a9576040517f08c379a0000000000000000000000000000000000000000000000000000000008152600401620019a09062002e4e565b60405180910390fd5b8181036000808673ffffffffffffffffffffffffffffffffffffffff1673ffffffffffffffffffffffffffffffffffffffff16815260200190815260200160002081905550816000808573ffffffffffffffffffffffffffffffffffffffff1673ffffffffffffffffffffffffffffffffffffffff168152602001908152602001600020600082825401925050819055508273ffffffffffffffffffffffffffffffffffffffff168473ffffffffffffffffffffffffffffffffffffffff167fddf252ad1be2c89b69c2b068fc378daa952ba7f163c4a11628f55a4df523b3ef8460405162001a99919062001ff6565b60405180910390a362001aae84848462001de4565b50505050565b60003330600660009054906101000a900473ffffffffffffffffffffffffffffffffffffffff1660405162001ae99062001de9565b62001af79392919062002e70565b604051809103906000f08015801562001b14573d6000803e3d6000fd5b50905080600860003373ffffffffffffffffffffffffffffffffffffffff1673ffffffffffffffffffffffffffffffffffffffff16815260200190815260200160002060006101000a81548173ffffffffffffffffffffffffffffffffffffffff021916908373ffffffffffffffffffffffffffffffffffffffff16021790555050565b6000670de0b6b3a76400008262001bb0919062002453565b9050919050565b6000600560009054906101000a900473ffffffffffffffffffffffffffffffffffffffff16905081600560006101000a81548173ffffffffffffffffffffffffffffffffffffffff021916908373ffffffffffffffffffffffffffffffffffffffff1602179055508173ffffffffffffffffffffffffffffffffffffffff168173ffffffffffffffffffffffffffffffffffffffff167f8be0079c531659141344cd1fd0a4f28419497f9722a3daafe3b4186f6b6457e060405160405180910390a35050565b600073ffffffffffffffffffffffffffffffffffffffff168273ffffffffffffffffffffffffffffffffffffffff16141562001cf0576040517f08c379a000000000000000000000000000000000000000000000000000000000815260040162001ce79062002efd565b60405180910390fd5b62001cfe6000838362001ddf565b806002600082825462001d129190620027d7565b92505081905550806000808473ffffffffffffffffffffffffffffffffffffffff1673ffffffffffffffffffffffffffffffffffffffff168152602001908152602001600020600082825401925050819055508173ffffffffffffffffffffffffffffffffffffffff16600073ffffffffffffffffffffffffffffffffffffffff167fddf252ad1be2c89b69c2b068fc378daa952ba7f163c4a11628f55a4df523b3ef8360405162001dc5919062001ff6565b60405180910390a362001ddb6000838362001de4565b5050565b505050565b505050565b6107158062002f2083390190565b600081519050919050565b600082825260208201905092915050565b60005b8381101562001e3357808201518184015260208101905062001e16565b8381111562001e43576000848401525b50505050565b6000601f19601f8301169050919050565b600062001e678262001df7565b62001e73818562001e02565b935062001e8581856020860162001e13565b62001e908162001e49565b840191505092915050565b6000602082019050818103600083015262001eb7818462001e5a565b905092915050565b600080fd5b600073ffffffffffffffffffffffffffffffffffffffff82169050919050565b600062001ef18262001ec4565b9050919050565b62001f038162001ee4565b811462001f0f57600080fd5b50565b60008135905062001f238162001ef8565b92915050565b6000819050919050565b62001f3e8162001f29565b811462001f4a57600080fd5b50565b60008135905062001f5e8162001f33565b92915050565b6000806040838503121562001f7e5762001f7d62001ebf565b5b600062001f8e8582860162001f12565b925050602062001fa18582860162001f4d565b9150509250929050565b60008115159050919050565b62001fc28162001fab565b82525050565b600060208201905062001fdf600083018462001fb7565b92915050565b62001ff08162001f29565b82525050565b60006020820190506200200d600083018462001fe5565b92915050565b6000806000606084860312156200202f576200202e62001ebf565b5b60006200203f8682870162001f12565b9350506020620020528682870162001f12565b9250506040620020658682870162001f4d565b9150509250925092565b60006020828403121562002088576200208762001ebf565b5b6000620020988482850162001f4d565b91505092915050565b600060ff82169050919050565b620020b981620020a1565b82525050565b6000602082019050620020d66000830184620020ae565b92915050565b620020e78162001ee4565b82525050565b6000602082019050620021046000830184620020dc565b92915050565b60006020828403121562002123576200212262001ebf565b5b6000620021338482850162001f12565b91505092915050565b600081519050919050565b600082825260208201905092915050565b6000819050602082019050919050565b620021738162001f29565b82525050565b600062002187838362002168565b60208301905092915050565b6000602082019050919050565b6000620021ad826200213c565b620021b9818562002147565b9350620021c68362002158565b8060005b83811015620021fd578151620021e1888262002179565b9750620021ee8362002193565b925050600181019050620021ca565b5085935050505092915050565b60006020820190508181036000830152620022268184620021a0565b905092915050565b6000806040838503121562002248576200224762001ebf565b5b6000620022588582860162001f12565b92505060206200226b8582860162001f12565b9150509250929050565b7f4e487b7100000000000000000000000000000000000000000000000000000000600052602260045260246000fd5b60006002820490506001821680620022bd57607f821691505b60208210811415620022d457620022d362002275565b5b50919050565b7f546865726520617265206e6f207469636b657473207075726368617365642100600082015250565b600062002312601f8362001e02565b91506200231f82620022da565b602082019050919050565b60006020820190508181036000830152620023458162002303565b9050919050565b6000819050919050565b6200236b620023658262001f29565b6200234c565b82525050565b60006200237f828462002356565b60208201915081905092915050565b7f4e487b7100000000000000000000000000000000000000000000000000000000600052601260045260246000fd5b6000620023ca8262001f29565b9150620023d78362001f29565b925082620023ea57620023e96200238e565b5b828206905092915050565b7f4e487b7100000000000000000000000000000000000000000000000000000000600052603260045260246000fd5b7f4e487b7100000000000000000000000000000000000000000000000000000000600052601160045260246000fd5b6000620024608262001f29565b91506200246d8362001f29565b9250817fffffffffffffffffffffffffffffffffffffffffffffffffffffffffffffffff0483118215151615620024a957620024a862002424565b5b828202905092915050565b6000620024c18262001f29565b9150620024ce8362001f29565b925082620024e157620024e06200238e565b5b828204905092915050565b7f596f7520646f6e2774206861766520656e6f75676820746f6b656e732e20506c60008201527f6561736520627579206d6f726521000000000000000000000000000000000000602082015250565b60006200254a602e8362001e02565b91506200255782620024ec565b604082019050919050565b600060208201905081810360008301526200257d816200253b565b9050919050565b60008160601b9050919050565b60006200259e8262002584565b9050919050565b6000620025b28262002591565b9050919050565b620025ce620025c88262001ee4565b620025a5565b82525050565b6000620025e2828662002356565b602082019150620025f48285620025b9565b60148201915062002606828462002356565b602082019150819050949350505050565b6000620026248262001f29565b91507fffffffffffffffffffffffffffffffffffffffffffffffffffffffffffffffff8214156200265a576200265962002424565b5b600182019050919050565b60006040820190506200267c6000830185620020dc565b6200268b602083018462001fe5565b9392505050565b7f427579206c65737320746f6b656e73206f207061792077697468206d6f72652060008201527f6574686572732100000000000000000000000000000000000000000000000000602082015250565b6000620026f060278362001e02565b9150620026fd8262002692565b604082019050919050565b600060208201905081810360008301526200272381620026e1565b9050919050565b7f427579206c65737320746f6b656e7320706c6561736521000000000000000000600082015250565b60006200276260178362001e02565b91506200276f826200272a565b602082019050919050565b60006020820190508181036000830152620027958162002753565b9050919050565b6000620027a98262001f29565b9150620027b68362001f29565b925082821015620027cc57620027cb62002424565b5b828203905092915050565b6000620027e48262001f29565b9150620027f18362001f29565b9250827fffffffffffffffffffffffffffffffffffffffffffffffffffffffffffffffff0382111562002829576200282862002424565b5b828201905092915050565b7f596f75206e65656420746f2072657475726e2061206e756d626572206f66207460008201527f6f6b656e732067726561746572207468616e2030210000000000000000000000602082015250565b60006200289260358362001e02565b91506200289f8262002834565b604082019050919050565b60006020820190508181036000830152620028c58162002883565b9050919050565b7f596f7520646f206e6f7420686176652074686520746f6b656e7320796f75207760008201527f616e7420746f2072657475726e21000000000000000000000000000000000000602082015250565b60006200292a602e8362001e02565b91506200293782620028cc565b604082019050919050565b600060208201905081810360008301526200295d816200291b565b9050919050565b7f45524332303a2064656372656173656420616c6c6f77616e63652062656c6f7760008201527f207a65726f000000000000000000000000000000000000000000000000000000602082015250565b6000620029c260258362001e02565b9150620029cf8262002964565b604082019050919050565b60006020820190508181036000830152620029f581620029b3565b9050919050565b7f4f776e61626c653a206e6577206f776e657220697320746865207a65726f206160008201527f6464726573730000000000000000000000000000000000000000000000000000602082015250565b600062002a5a60268362001e02565b915062002a6782620029fc565b604082019050919050565b6000602082019050818103600083015262002a8d8162002a4b565b9050919050565b7f45524332303a20617070726f76652066726f6d20746865207a65726f2061646460008201527f7265737300000000000000000000000000000000000000000000000000000000602082015250565b600062002af260248362001e02565b915062002aff8262002a94565b604082019050919050565b6000602082019050818103600083015262002b258162002ae3565b9050919050565b7f45524332303a20617070726f766520746f20746865207a65726f20616464726560008201527f7373000000000000000000000000000000000000000000000000000000000000602082015250565b600062002b8a60228362001e02565b915062002b978262002b2c565b604082019050919050565b6000602082019050818103600083015262002bbd8162002b7b565b9050919050565b7f4f776e61626c653a2063616c6c6572206973206e6f7420746865206f776e6572600082015250565b600062002bfc60208362001e02565b915062002c098262002bc4565b602082019050919050565b6000602082019050818103600083015262002c2f8162002bed565b9050919050565b7f45524332303a20696e73756666696369656e7420616c6c6f77616e6365000000600082015250565b600062002c6e601d8362001e02565b915062002c7b8262002c36565b602082019050919050565b6000602082019050818103600083015262002ca18162002c5f565b9050919050565b7f45524332303a207472616e736665722066726f6d20746865207a65726f20616460008201527f6472657373000000000000000000000000000000000000000000000000000000602082015250565b600062002d0660258362001e02565b915062002d138262002ca8565b604082019050919050565b6000602082019050818103600083015262002d398162002cf7565b9050919050565b7f45524332303a207472616e7366657220746f20746865207a65726f206164647260008201527f6573730000000000000000000000000000000000000000000000000000000000602082015250565b600062002d9e60238362001e02565b915062002dab8262002d40565b604082019050919050565b6000602082019050818103600083015262002dd18162002d8f565b9050919050565b7f45524332303a207472616e7366657220616d6f756e742065786365656473206260008201527f616c616e63650000000000000000000000000000000000000000000000000000602082015250565b600062002e3660268362001e02565b915062002e438262002dd8565b604082019050919050565b6000602082019050818103600083015262002e698162002e27565b9050919050565b600060608201905062002e876000830186620020dc565b62002e966020830185620020dc565b62002ea56040830184620020dc565b949350505050565b7f45524332303a206d696e7420746f20746865207a65726f206164647265737300600082015250565b600062002ee5601f8362001e02565b915062002ef28262002ead565b602082019050919050565b6000602082019050818103600083015262002f188162002ed6565b905091905056fe608060405234801561001057600080fd5b5060405161071538038061071583398181016040528101906100329190610236565b60405180608001604052808473ffffffffffffffffffffffffffffffffffffffff1681526020018373ffffffffffffffffffffffffffffffffffffffff1681526020018273ffffffffffffffffffffffffffffffffffffffff1681526020013073ffffffffffffffffffffffffffffffffffffffff168152506000808201518160000160006101000a81548173ffffffffffffffffffffffffffffffffffffffff021916908373ffffffffffffffffffffffffffffffffffffffff16021790555060208201518160010160006101000a81548173ffffffffffffffffffffffffffffffffffffffff021916908373ffffffffffffffffffffffffffffffffffffffff16021790555060408201518160020160006101000a81548173ffffffffffffffffffffffffffffffffffffffff021916908373ffffffffffffffffffffffffffffffffffffffff16021790555060608201518160030160006101000a81548173ffffffffffffffffffffffffffffffffffffffff021916908373ffffffffffffffffffffffffffffffffffffffff160217905550905050505050610289565b600080fd5b600073ffffffffffffffffffffffffffffffffffffffff82169050919050565b6000610203826101d8565b9050919050565b610213816101f8565b811461021e57600080fd5b50565b6000815190506102308161020a565b92915050565b60008060006060848603121561024f5761024e6101d3565b5b600061025d86828701610221565b935050602061026e86828701610221565b925050604061027f86828701610221565b9150509250925092565b61047d806102986000396000f3fe608060405234801561001057600080fd5b50600436106100365760003560e01c8063120e85231461003b5780638da5cb5b14610057575b600080fd5b610055600480360381019061005091906102d8565b610078565b005b61005f6101a1565b60405161006f9493929190610327565b60405180910390f35b600060010160009054906101000a900473ffffffffffffffffffffffffffffffffffffffff1673ffffffffffffffffffffffffffffffffffffffff163373ffffffffffffffffffffffffffffffffffffffff161461010b576040517f08c379a0000000000000000000000000000000000000000000000000000000008152600401610102906103ef565b60405180910390fd5b600060020160009054906101000a900473ffffffffffffffffffffffffffffffffffffffff1673ffffffffffffffffffffffffffffffffffffffff1663a144819483836040518363ffffffff1660e01b815260040161016b92919061041e565b600060405180830381600087803b15801561018557600080fd5b505af1158015610199573d6000803e3d6000fd5b505050505050565b60008060000160009054906101000a900473ffffffffffffffffffffffffffffffffffffffff16908060010160009054906101000a900473ffffffffffffffffffffffffffffffffffffffff16908060020160009054906101000a900473ffffffffffffffffffffffffffffffffffffffff16908060030160009054906101000a900473ffffffffffffffffffffffffffffffffffffffff16905084565b600080fd5b600073ffffffffffffffffffffffffffffffffffffffff82169050919050565b600061026f82610244565b9050919050565b61027f81610264565b811461028a57600080fd5b50565b60008135905061029c81610276565b92915050565b6000819050919050565b6102b5816102a2565b81146102c057600080fd5b50565b6000813590506102d2816102ac565b92915050565b600080604083850312156102ef576102ee61023f565b5b60006102fd8582860161028d565b925050602061030e858286016102c3565b9150509250929050565b61032181610264565b82525050565b600060808201905061033c6000830187610318565b6103496020830186610318565b6103566040830185610318565b6103636060830184610318565b95945050505050565b600082825260208201905092915050565b7f596f7520646f206e6f742068617665207065726d697373696f6e7320746f207260008201527f756e20746869732066756e6374696f6e00000000000000000000000000000000602082015250565b60006103d960308361036c565b91506103e48261037d565b604082019050919050565b60006020820190508181036000830152610408816103cc565b9050919050565b610418816102a2565b82525050565b60006040820190506104336000830185610318565b610440602083018461040f565b939250505056fea2646970667358221220299a5b7198a1ee4a892fdc5ba59c03f4f5477b018029a7648518044ee1c6f0a264736f6c634300080a0033a26469706673582212205924ccc0c26ecea891bf1175526a23ee787d1254e1486d2407eeb35b3d6212c264736f6c634300080a003360806040523480156200001157600080fd5b506040518060400160405280600781526020017f4c6f7474657279000000000000000000000000000000000000000000000000008152506040518060400160405280600281526020017f4c54000000000000000000000000000000000000000000000000000000000000815250816000908051906020019062000096929190620000f9565b508060019080519060200190620000af929190620000f9565b50505033600660006101000a81548173ffffffffffffffffffffffffffffffffffffffff021916908373ffffffffffffffffffffffffffffffffffffffff1602179055506200020e565b8280546200010790620001d8565b90600052602060002090601f0160209004810192826200012b576000855562000177565b82601f106200014657805160ff191683800117855562000177565b8280016001018555821562000177579182015b828111156200017657825182559160200191906001019062000159565b5b5090506200018691906200018a565b5090565b5b80821115620001a55760008160009055506001016200018b565b5090565b7f4e487b7100000000000000000000000000000000000000000000000000000000600052602260045260246000fd5b60006002820490506001821680620001f157607f821691505b60208210811415620002085762000207620001a9565b5b50919050565b61271a806200021e6000396000f3fe608060405234801561001057600080fd5b50600436106100f55760003560e01c806370a0823111610097578063b88d4fde11610066578063b88d4fde14610282578063c87b56dd1461029e578063e985e9c5146102ce578063ebe8cd42146102fe576100f5565b806370a08231146101fc57806395d89b411461022c578063a14481941461024a578063a22cb46514610266576100f5565b8063095ea7b3116100d3578063095ea7b31461017857806323b872dd1461019457806342842e0e146101b05780636352211e146101cc576100f5565b806301ffc9a7146100fa57806306fdde031461012a578063081812fc14610148575b600080fd5b610114600480360381019061010f9190611938565b61031c565b6040516101219190611980565b60405180910390f35b6101326103fe565b60405161013f9190611a34565b60405180910390f35b610162600480360381019061015d9190611a8c565b610490565b60405161016f9190611afa565b60405180910390f35b610192600480360381019061018d9190611b41565b6104d6565b005b6101ae60048036038101906101a99190611b81565b6105ee565b005b6101ca60048036038101906101c59190611b81565b61064e565b005b6101e660048036038101906101e19190611a8c565b61066e565b6040516101f39190611afa565b60405180910390f35b61021660048036038101906102119190611bd4565b6106f5565b6040516102239190611c10565b60405180910390f35b6102346107ad565b6040516102419190611a34565b60405180910390f35b610264600480360381019061025f9190611b41565b61083f565b005b610280600480360381019061027b9190611c57565b610956565b005b61029c60048036038101906102979190611dcc565b61096c565b005b6102b860048036038101906102b39190611a8c565b6109ce565b6040516102c59190611a34565b60405180910390f35b6102e860048036038101906102e39190611e4f565b610a36565b6040516102f59190611980565b60405180910390f35b610306610aca565b6040516103139190611afa565b60405180910390f35b60007f80ac58cd000000000000000000000000000000000000000000000000000000007bffffffffffffffffffffffffffffffffffffffffffffffffffffffff1916827bffffffffffffffffffffffffffffffffffffffffffffffffffffffff191614806103e757507f5b5e139f000000000000000000000000000000000000000000000000000000007bffffffffffffffffffffffffffffffffffffffffffffffffffffffff1916827bffffffffffffffffffffffffffffffffffffffffffffffffffffffff1916145b806103f757506103f682610af0565b5b9050919050565b60606000805461040d90611ebe565b80601f016020809104026020016040519081016040528092919081815260200182805461043990611ebe565b80156104865780601f1061045b57610100808354040283529160200191610486565b820191906000526020600020905b81548152906001019060200180831161046957829003601f168201915b5050505050905090565b600061049b82610b5a565b6004600083815260200190815260200160002060009054906101000a900473ffffffffffffffffffffffffffffffffffffffff169050919050565b60006104e18261066e565b90508073ffffffffffffffffffffffffffffffffffffffff168373ffffffffffffffffffffffffffffffffffffffff161415610552576040517f08c379a000000000000000000000000000000000000000000000000000000000815260040161054990611f62565b60405180910390fd5b8073ffffffffffffffffffffffffffffffffffffffff16610571610ba5565b73ffffffffffffffffffffffffffffffffffffffff1614806105a0575061059f8161059a610ba5565b610a36565b5b6105df576040517f08c379a00000000000000000000000000000000000000000000000000000000081526004016105d690611ff4565b60405180910390fd5b6105e98383610bad565b505050565b6105ff6105f9610ba5565b82610c66565b61063e576040517f08c379a000000000000000000000000000000000000000000000000000000000815260040161063590612086565b60405180910390fd5b610649838383610cfb565b505050565b6106698383836040518060200160405280600081525061096c565b505050565b60008061067a83610ff5565b9050600073ffffffffffffffffffffffffffffffffffffffff168173ffffffffffffffffffffffffffffffffffffffff1614156106ec576040517f08c379a00000000000000000000000000000000000000000000000000000000081526004016106e3906120f2565b60405180910390fd5b80915050919050565b60008073ffffffffffffffffffffffffffffffffffffffff168273ffffffffffffffffffffffffffffffffffffffff161415610766576040517f08c379a000000000000000000000000000000000000000000000000000000000815260040161075d90612184565b60405180910390fd5b600360008373ffffffffffffffffffffffffffffffffffffffff1673ffffffffffffffffffffffffffffffffffffffff168152602001908152602001600020549050919050565b6060600180546107bc90611ebe565b80601f01602080910402602001604051908101604052809291908181526020018280546107e890611ebe565b80156108355780601f1061080a57610100808354040283529160200191610835565b820191906000526020600020905b81548152906001019060200180831161081857829003601f168201915b5050505050905090565b600660009054906101000a900473ffffffffffffffffffffffffffffffffffffffff1673ffffffffffffffffffffffffffffffffffffffff16635d0eaaaf836040518263ffffffff1660e01b815260040161089a9190611afa565b602060405180830381865afa1580156108b7573d6000803e3d6000fd5b505050506040513d601f19601f820116820180604052508101906108db91906121b9565b73ffffffffffffffffffffffffffffffffffffffff163373ffffffffffffffffffffffffffffffffffffffff1614610948576040517f08c379a000000000000000000000000000000000000000000000000000000000815260040161093f90612258565b60405180910390fd5b6109528282611032565b5050565b610968610961610ba5565b8383611050565b5050565b61097d610977610ba5565b83610c66565b6109bc576040517f08c379a00000000000000000000000000000000000000000000000000000000081526004016109b390612086565b60405180910390fd5b6109c8848484846111bd565b50505050565b60606109d982610b5a565b60006109e3611219565b90506000815111610a035760405180602001604052806000815250610a2e565b80610a0d84611230565b604051602001610a1e9291906122b4565b6040516020818303038152906040525b915050919050565b6000600560008473ffffffffffffffffffffffffffffffffffffffff1673ffffffffffffffffffffffffffffffffffffffff16815260200190815260200160002060008373ffffffffffffffffffffffffffffffffffffffff1673ffffffffffffffffffffffffffffffffffffffff16815260200190815260200160002060009054906101000a900460ff16905092915050565b600660009054906101000a900473ffffffffffffffffffffffffffffffffffffffff1681565b60007f01ffc9a7000000000000000000000000000000000000000000000000000000007bffffffffffffffffffffffffffffffffffffffffffffffffffffffff1916827bffffffffffffffffffffffffffffffffffffffffffffffffffffffff1916149050919050565b610b6381611308565b610ba2576040517f08c379a0000000000000000000000000000000000000000000000000000000008152600401610b99906120f2565b60405180910390fd5b50565b600033905090565b816004600083815260200190815260200160002060006101000a81548173ffffffffffffffffffffffffffffffffffffffff021916908373ffffffffffffffffffffffffffffffffffffffff160217905550808273ffffffffffffffffffffffffffffffffffffffff16610c208361066e565b73ffffffffffffffffffffffffffffffffffffffff167f8c5be1e5ebec7d5bd14f71427d1e84f3dd0314c0f7b2291e5b200ac8c7c3b92560405160405180910390a45050565b600080610c728361066e565b90508073ffffffffffffffffffffffffffffffffffffffff168473ffffffffffffffffffffffffffffffffffffffff161480610cb45750610cb38185610a36565b5b80610cf257508373ffffffffffffffffffffffffffffffffffffffff16610cda84610490565b73ffffffffffffffffffffffffffffffffffffffff16145b91505092915050565b8273ffffffffffffffffffffffffffffffffffffffff16610d1b8261066e565b73ffffffffffffffffffffffffffffffffffffffff1614610d71576040517f08c379a0000000000000000000000000000000000000000000000000000000008152600401610d689061234a565b60405180910390fd5b600073ffffffffffffffffffffffffffffffffffffffff168273ffffffffffffffffffffffffffffffffffffffff161415610de1576040517f08c379a0000000000000000000000000000000000000000000000000000000008152600401610dd8906123dc565b60405180910390fd5b610dee8383836001611349565b8273ffffffffffffffffffffffffffffffffffffffff16610e0e8261066e565b73ffffffffffffffffffffffffffffffffffffffff1614610e64576040517f08c379a0000000000000000000000000000000000000000000000000000000008152600401610e5b9061234a565b60405180910390fd5b6004600082815260200190815260200160002060006101000a81549073ffffffffffffffffffffffffffffffffffffffff02191690556001600360008573ffffffffffffffffffffffffffffffffffffffff1673ffffffffffffffffffffffffffffffffffffffff168152602001908152602001600020600082825403925050819055506001600360008473ffffffffffffffffffffffffffffffffffffffff1673ffffffffffffffffffffffffffffffffffffffff16815260200190815260200160002060008282540192505081905550816002600083815260200190815260200160002060006101000a81548173ffffffffffffffffffffffffffffffffffffffff021916908373ffffffffffffffffffffffffffffffffffffffff160217905550808273ffffffffffffffffffffffffffffffffffffffff168473ffffffffffffffffffffffffffffffffffffffff167fddf252ad1be2c89b69c2b068fc378daa952ba7f163c4a11628f55a4df523b3ef60405160405180910390a4610ff0838383600161134f565b505050565b60006002600083815260200190815260200160002060009054906101000a900473ffffffffffffffffffffffffffffffffffffffff169050919050565b61104c828260405180602001604052806000815250611355565b5050565b8173ffffffffffffffffffffffffffffffffffffffff168373ffffffffffffffffffffffffffffffffffffffff1614156110bf576040517f08c379a00000000000000000000000000000000000000000000000000000000081526004016110b690612448565b60405180910390fd5b80600560008573ffffffffffffffffffffffffffffffffffffffff1673ffffffffffffffffffffffffffffffffffffffff16815260200190815260200160002060008473ffffffffffffffffffffffffffffffffffffffff1673ffffffffffffffffffffffffffffffffffffffff16815260200190815260200160002060006101000a81548160ff0219169083151502179055508173ffffffffffffffffffffffffffffffffffffffff168373ffffffffffffffffffffffffffffffffffffffff167f17307eab39ab6107e8899845ad3d59bd9653f200f220920489ca2b5937696c31836040516111b09190611980565b60405180910390a3505050565b6111c8848484610cfb565b6111d4848484846113b0565b611213576040517f08c379a000000000000000000000000000000000000000000000000000000000815260040161120a906124da565b60405180910390fd5b50505050565b606060405180602001604052806000815250905090565b60606000600161123f84611538565b01905060008167ffffffffffffffff81111561125e5761125d611ca1565b5b6040519080825280601f01601f1916602001820160405280156112905781602001600182028036833780820191505090505b509050600082602001820190505b6001156112fd578080600190039150507f3031323334353637383961626364656600000000000000000000000000000000600a86061a8153600a85816112e7576112e66124fa565b5b04945060008514156112f8576112fd565b61129e565b819350505050919050565b60008073ffffffffffffffffffffffffffffffffffffffff1661132a83610ff5565b73ffffffffffffffffffffffffffffffffffffffff1614159050919050565b50505050565b50505050565b61135f838361168b565b61136c60008484846113b0565b6113ab576040517f08c379a00000000000000000000000000000000000000000000000000000000081526004016113a2906124da565b60405180910390fd5b505050565b60006113d18473ffffffffffffffffffffffffffffffffffffffff166118a9565b1561152b578373ffffffffffffffffffffffffffffffffffffffff1663150b7a026113fa610ba5565b8786866040518563ffffffff1660e01b815260040161141c949392919061257e565b6020604051808303816000875af192505050801561145857506040513d601f19601f8201168201806040525081019061145591906125df565b60015b6114db573d8060008114611488576040519150601f19603f3d011682016040523d82523d6000602084013e61148d565b606091505b506000815114156114d3576040517f08c379a00000000000000000000000000000000000000000000000000000000081526004016114ca906124da565b60405180910390fd5b805181602001fd5b63150b7a0260e01b7bffffffffffffffffffffffffffffffffffffffffffffffffffffffff1916817bffffffffffffffffffffffffffffffffffffffffffffffffffffffff191614915050611530565b600190505b949350505050565b600080600090507a184f03e93ff9f4daa797ed6e38ed64bf6a1f0100000000000000008310611596577a184f03e93ff9f4daa797ed6e38ed64bf6a1f010000000000000000838161158c5761158b6124fa565b5b0492506040810190505b6d04ee2d6d415b85acef810000000083106115d3576d04ee2d6d415b85acef810000000083816115c9576115c86124fa565b5b0492506020810190505b662386f26fc10000831061160257662386f26fc1000083816115f8576115f76124fa565b5b0492506010810190505b6305f5e100831061162b576305f5e1008381611621576116206124fa565b5b0492506008810190505b6127108310611650576127108381611646576116456124fa565b5b0492506004810190505b606483106116735760648381611669576116686124fa565b5b0492506002810190505b600a8310611682576001810190505b80915050919050565b600073ffffffffffffffffffffffffffffffffffffffff168273ffffffffffffffffffffffffffffffffffffffff1614156116fb576040517f08c379a00000000000000000000000000000000000000000000000000000000081526004016116f290612658565b60405180910390fd5b61170481611308565b15611744576040517f08c379a000000000000000000000000000000000000000000000000000000000815260040161173b906126c4565b60405180910390fd5b611752600083836001611349565b61175b81611308565b1561179b576040517f08c379a0000000000000000000000000000000000000000000000000000000008152600401611792906126c4565b60405180910390fd5b6001600360008473ffffffffffffffffffffffffffffffffffffffff1673ffffffffffffffffffffffffffffffffffffffff16815260200190815260200160002060008282540192505081905550816002600083815260200190815260200160002060006101000a81548173ffffffffffffffffffffffffffffffffffffffff021916908373ffffffffffffffffffffffffffffffffffffffff160217905550808273ffffffffffffffffffffffffffffffffffffffff16600073ffffffffffffffffffffffffffffffffffffffff167fddf252ad1be2c89b69c2b068fc378daa952ba7f163c4a11628f55a4df523b3ef60405160405180910390a46118a560008383600161134f565b5050565b6000808273ffffffffffffffffffffffffffffffffffffffff163b119050919050565b6000604051905090565b600080fd5b600080fd5b60007fffffffff0000000000000000000000000000000000000000000000000000000082169050919050565b611915816118e0565b811461192057600080fd5b50565b6000813590506119328161190c565b92915050565b60006020828403121561194e5761194d6118d6565b5b600061195c84828501611923565b91505092915050565b60008115159050919050565b61197a81611965565b82525050565b60006020820190506119956000830184611971565b92915050565b600081519050919050565b600082825260208201905092915050565b60005b838110156119d55780820151818401526020810190506119ba565b838111156119e4576000848401525b50505050565b6000601f19601f8301169050919050565b6000611a068261199b565b611a1081856119a6565b9350611a208185602086016119b7565b611a29816119ea565b840191505092915050565b60006020820190508181036000830152611a4e81846119fb565b905092915050565b6000819050919050565b611a6981611a56565b8114611a7457600080fd5b50565b600081359050611a8681611a60565b92915050565b600060208284031215611aa257611aa16118d6565b5b6000611ab084828501611a77565b91505092915050565b600073ffffffffffffffffffffffffffffffffffffffff82169050919050565b6000611ae482611ab9565b9050919050565b611af481611ad9565b82525050565b6000602082019050611b0f6000830184611aeb565b92915050565b611b1e81611ad9565b8114611b2957600080fd5b50565b600081359050611b3b81611b15565b92915050565b60008060408385031215611b5857611b576118d6565b5b6000611b6685828601611b2c565b9250506020611b7785828601611a77565b9150509250929050565b600080600060608486031215611b9a57611b996118d6565b5b6000611ba886828701611b2c565b9350506020611bb986828701611b2c565b9250506040611bca86828701611a77565b9150509250925092565b600060208284031215611bea57611be96118d6565b5b6000611bf884828501611b2c565b91505092915050565b611c0a81611a56565b82525050565b6000602082019050611c256000830184611c01565b92915050565b611c3481611965565b8114611c3f57600080fd5b50565b600081359050611c5181611c2b565b92915050565b60008060408385031215611c6e57611c6d6118d6565b5b6000611c7c85828601611b2c565b9250506020611c8d85828601611c42565b9150509250929050565b600080fd5b600080fd5b7f4e487b7100000000000000000000000000000000000000000000000000000000600052604160045260246000fd5b611cd9826119ea565b810181811067ffffffffffffffff82111715611cf857611cf7611ca1565b5b80604052505050565b6000611d0b6118cc565b9050611d178282611cd0565b919050565b600067ffffffffffffffff821115611d3757611d36611ca1565b5b611d40826119ea565b9050602081019050919050565b82818337600083830152505050565b6000611d6f611d6a84611d1c565b611d01565b905082815260208101848484011115611d8b57611d8a611c9c565b5b611d96848285611d4d565b509392505050565b600082601f830112611db357611db2611c97565b5b8135611dc3848260208601611d5c565b91505092915050565b60008060008060808587031215611de657611de56118d6565b5b6000611df487828801611b2c565b9450506020611e0587828801611b2c565b9350506040611e1687828801611a77565b925050606085013567ffffffffffffffff811115611e3757611e366118db565b5b611e4387828801611d9e565b91505092959194509250565b60008060408385031215611e6657611e656118d6565b5b6000611e7485828601611b2c565b9250506020611e8585828601611b2c565b9150509250929050565b7f4e487b7100000000000000000000000000000000000000000000000000000000600052602260045260246000fd5b60006002820490506001821680611ed657607f821691505b60208210811415611eea57611ee9611e8f565b5b50919050565b7f4552433732313a20617070726f76616c20746f2063757272656e74206f776e6560008201527f7200000000000000000000000000000000000000000000000000000000000000602082015250565b6000611f4c6021836119a6565b9150611f5782611ef0565b604082019050919050565b60006020820190508181036000830152611f7b81611f3f565b9050919050565b7f4552433732313a20617070726f76652063616c6c6572206973206e6f7420746f60008201527f6b656e206f776e6572206f7220617070726f76656420666f7220616c6c000000602082015250565b6000611fde603d836119a6565b9150611fe982611f82565b604082019050919050565b6000602082019050818103600083015261200d81611fd1565b9050919050565b7f4552433732313a2063616c6c6572206973206e6f7420746f6b656e206f776e6560008201527f72206f7220617070726f76656400000000000000000000000000000000000000602082015250565b6000612070602d836119a6565b915061207b82612014565b604082019050919050565b6000602082019050818103600083015261209f81612063565b9050919050565b7f4552433732313a20696e76616c696420746f6b656e2049440000000000000000600082015250565b60006120dc6018836119a6565b91506120e7826120a6565b602082019050919050565b6000602082019050818103600083015261210b816120cf565b9050919050565b7f4552433732313a2061646472657373207a65726f206973206e6f74206120766160008201527f6c6964206f776e65720000000000000000000000000000000000000000000000602082015250565b600061216e6029836119a6565b915061217982612112565b604082019050919050565b6000602082019050818103600083015261219d81612161565b9050919050565b6000815190506121b381611b15565b92915050565b6000602082840312156121cf576121ce6118d6565b5b60006121dd848285016121a4565b91505092915050565b7f596f7520646f206e6f742068617665207065726d697373696f6e7320746f207260008201527f756e20746869732066756e6374696f6e21000000000000000000000000000000602082015250565b60006122426031836119a6565b915061224d826121e6565b604082019050919050565b6000602082019050818103600083015261227181612235565b9050919050565b600081905092915050565b600061228e8261199b565b6122988185612278565b93506122a88185602086016119b7565b80840191505092915050565b60006122c08285612283565b91506122cc8284612283565b91508190509392505050565b7f4552433732313a207472616e736665722066726f6d20696e636f72726563742060008201527f6f776e6572000000000000000000000000000000000000000000000000000000602082015250565b60006123346025836119a6565b915061233f826122d8565b604082019050919050565b6000602082019050818103600083015261236381612327565b9050919050565b7f4552433732313a207472616e7366657220746f20746865207a65726f2061646460008201527f7265737300000000000000000000000000000000000000000000000000000000602082015250565b60006123c66024836119a6565b91506123d18261236a565b604082019050919050565b600060208201905081810360008301526123f5816123b9565b9050919050565b7f4552433732313a20617070726f766520746f2063616c6c657200000000000000600082015250565b60006124326019836119a6565b915061243d826123fc565b602082019050919050565b6000602082019050818103600083015261246181612425565b9050919050565b7f4552433732313a207472616e7366657220746f206e6f6e20455243373231526560008201527f63656976657220696d706c656d656e7465720000000000000000000000000000602082015250565b60006124c46032836119a6565b91506124cf82612468565b604082019050919050565b600060208201905081810360008301526124f3816124b7565b9050919050565b7f4e487b7100000000000000000000000000000000000000000000000000000000600052601260045260246000fd5b600081519050919050565b600082825260208201905092915050565b600061255082612529565b61255a8185612534565b935061256a8185602086016119b7565b612573816119ea565b840191505092915050565b60006080820190506125936000830187611aeb565b6125a06020830186611aeb565b6125ad6040830185611c01565b81810360608301526125bf8184612545565b905095945050505050565b6000815190506125d98161190c565b92915050565b6000602082840312156125f5576125f46118d6565b5b6000612603848285016125ca565b91505092915050565b7f4552433732313a206d696e7420746f20746865207a65726f2061646472657373600082015250565b60006126426020836119a6565b915061264d8261260c565b602082019050919050565b6000602082019050818103600083015261267181612635565b9050919050565b7f4552433732313a20746f6b656e20616c7265616479206d696e74656400000000600082015250565b60006126ae601c836119a6565b91506126b982612678565b602082019050919050565b600060208201905081810360008301526126dd816126a1565b905091905056fea26469706673582212209824d499e9a95cdb445734bebbc402e2bca5ecefe37567c8ae23de4518cfdd3664736f6c634300080a0033",
  "immutableReferences": {},
  "source": "// SPDX-License-Identifier: MIT\npragma solidity ^0.8.10;\n\nimport \"@openzeppelin/contracts/token/ERC20/ERC20.sol\";\nimport \"@openzeppelin/contracts/token/ERC721/ERC721.sol\";\nimport \"@openzeppelin/contracts/access/Ownable.sol\";\n\ncontract lottery is ERC20, Ownable {\n\n    // ============================================\n    // Tokens managment\n    // Gestion de los tokens\n    // ============================================\n\n    // Address of the NFT Contract\n    // Direccion del contrato NFT del proyecto\n    address public nft;\n\n    // Constructor \n    constructor() ERC20(\"Lottery\", \"LT\"){\n        _mint( address(this), 5000 );\n        nft = address( new mainERC721() );\n    }\n\n    // Winner of the lottery\n    // Ganador del premio de la loteria\n    address public winner;\n\n    // User registration\n    // Registro del usuario\n    mapping( address => address ) public userContract;\n\n    // Get Tokens ERC-20 price\n    // Obtencion del precio de los tokens ERC-20\n    function priceTokens( uint256 _numTokens ) internal pure returns (uint256) {\n        return _numTokens * (1 ether);\n    }\n\n    // Get user's tokens ERC-20 balance\n    // Visualizacion del balance de tokens ERC-20 de un usuario\n    function balanceTokens( address _account ) public view returns (uint256) {\n        return balanceOf( _account );\n    }\n\n    // Get Smart Contract's tokens ERC-20 balance\n    // Visualizacion del balance de tokens ERC-20 del Smart Contract\n    function balanceTokensSC() public view returns (uint256) {\n        return balanceOf( address(this) );\n    }\n\n    // Get Smart Contract ethers balance\n    // Visualizacion del balance de ethers del Smart Contract\n    function balanceEthersSC() public view returns (uint256) {\n        return address(this).balance / 10**18;\n    }\n\n    // Generation of new Tokens ERC-20\n    // Generacion de nuevos Tokens ERC-20\n    function mint( uint256 _newTokens ) public onlyOwner {\n        _mint( address(this), _newTokens );\n    }\n\n    // User registration\n    // Registro de usuarios\n    function userRegister() internal {\n        address addr_personal_contract = address( new ticketsNFTs(msg.sender, address(this), nft) );\n        userContract[ msg.sender ] = addr_personal_contract; \n    }\n\n    // User information\n    // Informacion de un usuario\n    function usersInfo( address _account ) public view returns (address) {\n        return userContract[ _account ];\n    }\n\n    // Buy tokens ERC-20\n    // Compra de tokens ERC-20\n    function buyTokens( uint256 _numTokens ) public payable {\n        // Registering the user\n        if( userContract[msg.sender] == address(0) ){\n            userRegister();\n        }\n        // Calculate the cost of the tokens to buy\n        uint256 cost = priceTokens( _numTokens );\n        // Filtering if the user has enough money\n        require( msg.value >= cost, \"Buy less tokens o pay with more ethers!\" );\n        // Getting the tokens ERC-20 available\n        uint256 balance = balanceTokensSC();\n        // Filtering if there are enough tokens\n        require( _numTokens <= balance, \"Buy less tokens please!\" );\n        // Regund of excess money\n        uint256 returnValue = msg.value - cost;\n        // Smart Contract returns the money left\n        payable(msg.sender).transfer( returnValue );\n        // Sending the tokens to the user\n        _transfer( address(this), msg.sender, _numTokens );\n    }\n\n    // Refund tokens to Smart Contract\n    // Devolucion de tokens al Smart Contract\n    function returnTokens( uint _numTokens ) public payable {\n        // Filtering the number of tokens greater than 0\n        require( _numTokens > 0, \"You need to return a number of tokens greater than 0!\" );\n        // User must demonstrate having the number of tokens he wants to return\n        require( _numTokens <= balanceTokens(msg.sender), \"You do not have the tokens you want to return!\" );\n        // User transfers tokens to Smart Contract\n        _transfer( msg.sender, address(this), _numTokens );\n        // Smart Contract sends ethers to the user\n        payable(msg.sender).transfer( priceTokens(_numTokens) );\n    }\n\n    // ============================================\n    // Lottery managment\n    // Gestin de la lotera\n    // ============================================\n\n    // Lottery ticket price (in ERC-20 tokens)\n    // Precio del boleto de loteria (en tokens ERC-20)\n    uint public priceTicket = 5;\n\n    // Relationship between someone who buys tickets -> number of tickets\n    // Relacion: persona que compra los boletos -> el numero de los boletos\n    mapping(address => uint []) idUserTickets;\n\n    // Relationship between tickets -> winner\n    // Relacion: boleto -> ganador\n    mapping(uint => address) ADNTicket;\n\n    // Random number\n    // Numero aleatorio\n    uint randNonce = 0;\n\n    // Lottery tickets generated\n    // Boletos de la loteria generados\n    uint [] ticketsGenerated;\n\n    // Buy lottery tickets\n    // Compra de boletos de loteria\n    function buyTickets( uint _numTickets ) public {\n\n        // Total price of tickets\n        // Precio total de los boletos a comprar\n        uint totalPrice = _numTickets * priceTicket;\n        \n        // Checking if the user has enough tokens to buy something\n        // Verificacion de los tokens del usuario\n        require( totalPrice <= balanceTokens(msg.sender), \"You don't have enough tokens. Please buy more!\" );\n        \n        // Token transfer from the user to the Smart Contract\n        // Transferencia de tokens del usuario al Smart Contract\n        _transfer( msg.sender, address(this), totalPrice );\n        \n        for (uint i = 0; i < _numTickets; i++){\n            // Generating the random number using timestamp, the address who buy tickets and the nonce\n            /* \n                Recoge:\n                    - la marca de tiempo (block.timestamp), \n                    - msg.sender \n                    - y un Nonce \n                    (un numero que solo se utiliza una vez, para que no ejecutemos dos veces la misma  funcion de hash con los mismos parametros de entrada) en incremento.\n                \n                Se utiliza 'keccak256 'para convertir estas entradas a un hash aleatorio, convertir ese hash a un uint y luego utilizamos % 10000 para tomar los ultimos 4 digitos,\n                dando un valor aleatorio entre 0 - 9999. \n            */\n            uint random = uint( keccak256(abi.encodePacked(block.timestamp, msg.sender, randNonce))) % 10000;\n            randNonce++;\n\n            // Assign tickets to user\n            // Almacenamiento de los datos del boletos enlazados al usuario\n            idUserTickets[msg.sender].push(random);\n\n            // Storing tickets\n            // Almacenamiento de los datos de los boletos\n            ticketsGenerated.push(random);\n\n            // Assigning tickets to generate a winner later\n            // Asignacion del ADN del boleto para la generacion de un ganador\n            ADNTicket[random] = msg.sender;\n\n            // New NFT token creation for the ticket\n            // Creacion de un nuevo NFT para el numero de boleto\n            ticketsNFTs( userContract[msg.sender] ).mintBoleto(msg.sender, random);\n        }\n    }\n\n    // Get user's tickets\n    function Boletos( address _owner ) public view returns(uint [] memory) {\n        return idUserTickets[ _owner ];\n    }\n\n    // Generation of the lottery winner\n    // Generacion del ganador de la loteria\n    function generateWinner() public onlyOwner {\n        // Declaracion de la longitud del array\n        uint _length = ticketsGenerated.length;\n\n        // Filtering the purchase: at least must be 1 ticket\n        // Verificacion de la compra de al menos de 1 boleto\n        require(_length > 0, \"There are no tickets purchased!\");\n\n        // Generation a random number\n        // Eleccion aleatoria de un numero entre: [0-Longitud]\n        uint random = uint(uint(keccak256(abi.encodePacked(block.timestamp))) % _length);\n        \n        // Choosing a random number\n        // Seleccion del numero aleatorio\n        uint _selected = ticketsGenerated[random];\n\n        // Lottery's winner address\n        // Direccion del ganador de la loteria\n        winner = ADNTicket[_selected];\n\n        // 95% of the prize to winner\n        // Envio del 95% del premio de loteria al ganador\n        payable(winner).transfer(address(this).balance * 95 / 100);\n\n        // 5%  of the prize sent to the owner (benefits)\n        // Envio del 5% del premio de loteria al owner\n        payable(owner()).transfer(address(this).balance * 5 / 100);\n    }\n\n}\n\n// NFT Smart Contract\n// Smart Contract de NFTs\ncontract mainERC721 is ERC721 {\n\n    address public addressLottery;\n    constructor() ERC721(\"Lottery\", \"LT\"){\n        addressLottery = msg.sender;\n    }\n\n    // NFTs creation\n    // Creacion de NFTs\n    function safeMint( address _owner, uint256 _ticket ) public {\n        require( msg.sender == lottery(addressLottery).usersInfo(_owner), \"You do not have permissions to run this function!\" );\n        _safeMint( _owner, _ticket );\n    }\n\n}\n\ncontract ticketsNFTs {\n\n    // Owner information\n    // Datos relevantes del propietario\n    struct Owner {\n        address direccionPropietario;\n        address contratoPadre;\n        address contractNFT;\n        address contratoUsuario;\n    }\n    Owner public owner;\n\n    // Smart Contract (child) constructor\n    // Datos relevantes del propietario \n    constructor( address _owner, address _contractParent, address _contractNFT){\n        owner = Owner(\n            _owner, \n            _contractParent,\n            _contractNFT, \n            address(this)\n        );\n    }\n\n    // Conversion of lottery ticket numbers\n    // Conversion de los numeros de los boletos de loteria\n    function mintBoleto( address _owner, uint _ticket ) public {\n        require( msg.sender == owner.contratoPadre, \"You do not have permissions to run this function\" );\n        mainERC721( owner.contractNFT).safeMint( _owner, _ticket );\n    }\n\n}",
  "sourcePath": "/Users/kiwi/Development/blockchain/02-lottery/src/contracts/lottery.sol",
  "compiler": {
    "name": "solc",
    "version": "0.8.10+commit.fc410830.Emscripten.clang"
  },
  "schemaVersion": "3.4.16",
  "updatedAt": "2024-01-16T17:24:19.074Z",
  "networkType": "ethereum",
  "devdoc": {
    "kind": "dev",
    "methods": {
      "allowance(address,address)": {
        "details": "See {IERC20-allowance}."
      },
      "approve(address,uint256)": {
        "details": "See {IERC20-approve}. NOTE: If `amount` is the maximum `uint256`, the allowance is not updated on `transferFrom`. This is semantically equivalent to an infinite approval. Requirements: - `spender` cannot be the zero address."
      },
      "balanceOf(address)": {
        "details": "See {IERC20-balanceOf}."
      },
      "decimals()": {
        "details": "Returns the number of decimals used to get its user representation. For example, if `decimals` equals `2`, a balance of `505` tokens should be displayed to a user as `5.05` (`505 / 10 ** 2`). Tokens usually opt for a value of 18, imitating the relationship between Ether and Wei. This is the default value returned by this function, unless it's overridden. NOTE: This information is only used for _display_ purposes: it in no way affects any of the arithmetic of the contract, including {IERC20-balanceOf} and {IERC20-transfer}."
      },
      "decreaseAllowance(address,uint256)": {
        "details": "Atomically decreases the allowance granted to `spender` by the caller. This is an alternative to {approve} that can be used as a mitigation for problems described in {IERC20-approve}. Emits an {Approval} event indicating the updated allowance. Requirements: - `spender` cannot be the zero address. - `spender` must have allowance for the caller of at least `subtractedValue`."
      },
      "increaseAllowance(address,uint256)": {
        "details": "Atomically increases the allowance granted to `spender` by the caller. This is an alternative to {approve} that can be used as a mitigation for problems described in {IERC20-approve}. Emits an {Approval} event indicating the updated allowance. Requirements: - `spender` cannot be the zero address."
      },
      "name()": {
        "details": "Returns the name of the token."
      },
      "owner()": {
        "details": "Returns the address of the current owner."
      },
      "renounceOwnership()": {
        "details": "Leaves the contract without owner. It will not be possible to call `onlyOwner` functions. Can only be called by the current owner. NOTE: Renouncing ownership will leave the contract without an owner, thereby disabling any functionality that is only available to the owner."
      },
      "symbol()": {
        "details": "Returns the symbol of the token, usually a shorter version of the name."
      },
      "totalSupply()": {
        "details": "See {IERC20-totalSupply}."
      },
      "transfer(address,uint256)": {
        "details": "See {IERC20-transfer}. Requirements: - `to` cannot be the zero address. - the caller must have a balance of at least `amount`."
      },
      "transferFrom(address,address,uint256)": {
        "details": "See {IERC20-transferFrom}. Emits an {Approval} event indicating the updated allowance. This is not required by the EIP. See the note at the beginning of {ERC20}. NOTE: Does not update the allowance if the current allowance is the maximum `uint256`. Requirements: - `from` and `to` cannot be the zero address. - `from` must have a balance of at least `amount`. - the caller must have allowance for ``from``'s tokens of at least `amount`."
      },
      "transferOwnership(address)": {
        "details": "Transfers ownership of the contract to a new account (`newOwner`). Can only be called by the current owner."
      }
    },
    "version": 1
  },
  "userdoc": {
    "kind": "user",
    "methods": {},
    "version": 1
  }
}