{
  "contractName": "mainERC721",
  "abi": [
    {
      "inputs": [],
      "stateMutability": "nonpayable",
      "type": "constructor"
    },
    {
      "anonymous": false,
      "inputs": [
        {
          "indexed": true,
          "internalType": "address",
          "name": "owner",
          "type": "address"
        },
        {
          "indexed": true,
          "internalType": "address",
          "name": "approved",
          "type": "address"
        },
        {
          "indexed": true,
          "internalType": "uint256",
          "name": "tokenId",
          "type": "uint256"
        }
      ],
      "name": "Approval",
      "type": "event"
    },
    {
      "anonymous": false,
      "inputs": [
        {
          "indexed": true,
          "internalType": "address",
          "name": "owner",
          "type": "address"
        },
        {
          "indexed": true,
          "internalType": "address",
          "name": "operator",
          "type": "address"
        },
        {
          "indexed": false,
          "internalType": "bool",
          "name": "approved",
          "type": "bool"
        }
      ],
      "name": "ApprovalForAll",
      "type": "event"
    },
    {
      "anonymous": false,
      "inputs": [
        {
          "indexed": true,
          "internalType": "address",
          "name": "from",
          "type": "address"
        },
        {
          "indexed": true,
          "internalType": "address",
          "name": "to",
          "type": "address"
        },
        {
          "indexed": true,
          "internalType": "uint256",
          "name": "tokenId",
          "type": "uint256"
        }
      ],
      "name": "Transfer",
      "type": "event"
    },
    {
      "inputs": [],
      "name": "addressLottery",
      "outputs": [
        {
          "internalType": "address",
          "name": "",
          "type": "address"
        }
      ],
      "stateMutability": "view",
      "type": "function"
    },
    {
      "inputs": [
        {
          "internalType": "address",
          "name": "to",
          "type": "address"
        },
        {
          "internalType": "uint256",
          "name": "tokenId",
          "type": "uint256"
        }
      ],
      "name": "approve",
      "outputs": [],
      "stateMutability": "nonpayable",
      "type": "function"
    },
    {
      "inputs": [
        {
          "internalType": "address",
          "name": "owner",
          "type": "address"
        }
      ],
      "name": "balanceOf",
      "outputs": [
        {
          "internalType": "uint256",
          "name": "",
          "type": "uint256"
        }
      ],
      "stateMutability": "view",
      "type": "function"
    },
    {
      "inputs": [
        {
          "internalType": "uint256",
          "name": "tokenId",
          "type": "uint256"
        }
      ],
      "name": "getApproved",
      "outputs": [
        {
          "internalType": "address",
          "name": "",
          "type": "address"
        }
      ],
      "stateMutability": "view",
      "type": "function"
    },
    {
      "inputs": [
        {
          "internalType": "address",
          "name": "owner",
          "type": "address"
        },
        {
          "internalType": "address",
          "name": "operator",
          "type": "address"
        }
      ],
      "name": "isApprovedForAll",
      "outputs": [
        {
          "internalType": "bool",
          "name": "",
          "type": "bool"
        }
      ],
      "stateMutability": "view",
      "type": "function"
    },
    {
      "inputs": [],
      "name": "name",
      "outputs": [
        {
          "internalType": "string",
          "name": "",
          "type": "string"
        }
      ],
      "stateMutability": "view",
      "type": "function"
    },
    {
      "inputs": [
        {
          "internalType": "uint256",
          "name": "tokenId",
          "type": "uint256"
        }
      ],
      "name": "ownerOf",
      "outputs": [
        {
          "internalType": "address",
          "name": "",
          "type": "address"
        }
      ],
      "stateMutability": "view",
      "type": "function"
    },
    {
      "inputs": [
        {
          "internalType": "address",
          "name": "from",
          "type": "address"
        },
        {
          "internalType": "address",
          "name": "to",
          "type": "address"
        },
        {
          "internalType": "uint256",
          "name": "tokenId",
          "type": "uint256"
        }
      ],
      "name": "safeTransferFrom",
      "outputs": [],
      "stateMutability": "nonpayable",
      "type": "function"
    },
    {
      "inputs": [
        {
          "internalType": "address",
          "name": "from",
          "type": "address"
        },
        {
          "internalType": "address",
          "name": "to",
          "type": "address"
        },
        {
          "internalType": "uint256",
          "name": "tokenId",
          "type": "uint256"
        },
        {
          "internalType": "bytes",
          "name": "data",
          "type": "bytes"
        }
      ],
      "name": "safeTransferFrom",
      "outputs": [],
      "stateMutability": "nonpayable",
      "type": "function"
    },
    {
      "inputs": [
        {
          "internalType": "address",
          "name": "operator",
          "type": "address"
        },
        {
          "internalType": "bool",
          "name": "approved",
          "type": "bool"
        }
      ],
      "name": "setApprovalForAll",
      "outputs": [],
      "stateMutability": "nonpayable",
      "type": "function"
    },
    {
      "inputs": [
        {
          "internalType": "bytes4",
          "name": "interfaceId",
          "type": "bytes4"
        }
      ],
      "name": "supportsInterface",
      "outputs": [
        {
          "internalType": "bool",
          "name": "",
          "type": "bool"
        }
      ],
      "stateMutability": "view",
      "type": "function"
    },
    {
      "inputs": [],
      "name": "symbol",
      "outputs": [
        {
          "internalType": "string",
          "name": "",
          "type": "string"
        }
      ],
      "stateMutability": "view",
      "type": "function"
    },
    {
      "inputs": [
        {
          "internalType": "uint256",
          "name": "tokenId",
          "type": "uint256"
        }
      ],
      "name": "tokenURI",
      "outputs": [
        {
          "internalType": "string",
          "name": "",
          "type": "string"
        }
      ],
      "stateMutability": "view",
      "type": "function"
    },
    {
      "inputs": [
        {
          "internalType": "address",
          "name": "from",
          "type": "address"
        },
        {
          "internalType": "address",
          "name": "to",
          "type": "address"
        },
        {
          "internalType": "uint256",
          "name": "tokenId",
          "type": "uint256"
        }
      ],
      "name": "transferFrom",
      "outputs": [],
      "stateMutability": "nonpayable",
      "type": "function"
    },
    {
      "inputs": [
        {
          "internalType": "address",
          "name": "_owner",
          "type": "address"
        },
        {
          "internalType": "uint256",
          "name": "_ticket",
          "type": "uint256"
        }
      ],
      "name": "safeMint",
      "outputs": [],
      "stateMutability": "nonpayable",
      "type": "function"
    }
  ],
  "bytecode": "0x60806040523480156200001157600080fd5b506040518060400160405280600781526020017f4c6f7474657279000000000000000000000000000000000000000000000000008152506040518060400160405280600281526020017f4c54000000000000000000000000000000000000000000000000000000000000815250816000908051906020019062000096929190620000f9565b508060019080519060200190620000af929190620000f9565b50505033600660006101000a81548173ffffffffffffffffffffffffffffffffffffffff021916908373ffffffffffffffffffffffffffffffffffffffff1602179055506200020e565b8280546200010790620001d8565b90600052602060002090601f0160209004810192826200012b576000855562000177565b82601f106200014657805160ff191683800117855562000177565b8280016001018555821562000177579182015b828111156200017657825182559160200191906001019062000159565b5b5090506200018691906200018a565b5090565b5b80821115620001a55760008160009055506001016200018b565b5090565b7f4e487b7100000000000000000000000000000000000000000000000000000000600052602260045260246000fd5b60006002820490506001821680620001f157607f821691505b60208210811415620002085762000207620001a9565b5b50919050565b61271a806200021e6000396000f3fe608060405234801561001057600080fd5b50600436106100f55760003560e01c806370a0823111610097578063b88d4fde11610066578063b88d4fde14610282578063c87b56dd1461029e578063e985e9c5146102ce578063ebe8cd42146102fe576100f5565b806370a08231146101fc57806395d89b411461022c578063a14481941461024a578063a22cb46514610266576100f5565b8063095ea7b3116100d3578063095ea7b31461017857806323b872dd1461019457806342842e0e146101b05780636352211e146101cc576100f5565b806301ffc9a7146100fa57806306fdde031461012a578063081812fc14610148575b600080fd5b610114600480360381019061010f9190611938565b61031c565b6040516101219190611980565b60405180910390f35b6101326103fe565b60405161013f9190611a34565b60405180910390f35b610162600480360381019061015d9190611a8c565b610490565b60405161016f9190611afa565b60405180910390f35b610192600480360381019061018d9190611b41565b6104d6565b005b6101ae60048036038101906101a99190611b81565b6105ee565b005b6101ca60048036038101906101c59190611b81565b61064e565b005b6101e660048036038101906101e19190611a8c565b61066e565b6040516101f39190611afa565b60405180910390f35b61021660048036038101906102119190611bd4565b6106f5565b6040516102239190611c10565b60405180910390f35b6102346107ad565b6040516102419190611a34565b60405180910390f35b610264600480360381019061025f9190611b41565b61083f565b005b610280600480360381019061027b9190611c57565b610956565b005b61029c60048036038101906102979190611dcc565b61096c565b005b6102b860048036038101906102b39190611a8c565b6109ce565b6040516102c59190611a34565b60405180910390f35b6102e860048036038101906102e39190611e4f565b610a36565b6040516102f59190611980565b60405180910390f35b610306610aca565b6040516103139190611afa565b60405180910390f35b60007f80ac58cd000000000000000000000000000000000000000000000000000000007bffffffffffffffffffffffffffffffffffffffffffffffffffffffff1916827bffffffffffffffffffffffffffffffffffffffffffffffffffffffff191614806103e757507f5b5e139f000000000000000000000000000000000000000000000000000000007bffffffffffffffffffffffffffffffffffffffffffffffffffffffff1916827bffffffffffffffffffffffffffffffffffffffffffffffffffffffff1916145b806103f757506103f682610af0565b5b9050919050565b60606000805461040d90611ebe565b80601f016020809104026020016040519081016040528092919081815260200182805461043990611ebe565b80156104865780601f1061045b57610100808354040283529160200191610486565b820191906000526020600020905b81548152906001019060200180831161046957829003601f168201915b5050505050905090565b600061049b82610b5a565b6004600083815260200190815260200160002060009054906101000a900473ffffffffffffffffffffffffffffffffffffffff169050919050565b60006104e18261066e565b90508073ffffffffffffffffffffffffffffffffffffffff168373ffffffffffffffffffffffffffffffffffffffff161415610552576040517f08c379a000000000000000000000000000000000000000000000000000000000815260040161054990611f62565b60405180910390fd5b8073ffffffffffffffffffffffffffffffffffffffff16610571610ba5565b73ffffffffffffffffffffffffffffffffffffffff1614806105a0575061059f8161059a610ba5565b610a36565b5b6105df576040517f08c379a00000000000000000000000000000000000000000000000000000000081526004016105d690611ff4565b60405180910390fd5b6105e98383610bad565b505050565b6105ff6105f9610ba5565b82610c66565b61063e576040517f08c379a000000000000000000000000000000000000000000000000000000000815260040161063590612086565b60405180910390fd5b610649838383610cfb565b505050565b6106698383836040518060200160405280600081525061096c565b505050565b60008061067a83610ff5565b9050600073ffffffffffffffffffffffffffffffffffffffff168173ffffffffffffffffffffffffffffffffffffffff1614156106ec576040517f08c379a00000000000000000000000000000000000000000000000000000000081526004016106e3906120f2565b60405180910390fd5b80915050919050565b60008073ffffffffffffffffffffffffffffffffffffffff168273ffffffffffffffffffffffffffffffffffffffff161415610766576040517f08c379a000000000000000000000000000000000000000000000000000000000815260040161075d90612184565b60405180910390fd5b600360008373ffffffffffffffffffffffffffffffffffffffff1673ffffffffffffffffffffffffffffffffffffffff168152602001908152602001600020549050919050565b6060600180546107bc90611ebe565b80601f01602080910402602001604051908101604052809291908181526020018280546107e890611ebe565b80156108355780601f1061080a57610100808354040283529160200191610835565b820191906000526020600020905b81548152906001019060200180831161081857829003601f168201915b5050505050905090565b600660009054906101000a900473ffffffffffffffffffffffffffffffffffffffff1673ffffffffffffffffffffffffffffffffffffffff16635d0eaaaf836040518263ffffffff1660e01b815260040161089a9190611afa565b602060405180830381865afa1580156108b7573d6000803e3d6000fd5b505050506040513d601f19601f820116820180604052508101906108db91906121b9565b73ffffffffffffffffffffffffffffffffffffffff163373ffffffffffffffffffffffffffffffffffffffff1614610948576040517f08c379a000000000000000000000000000000000000000000000000000000000815260040161093f90612258565b60405180910390fd5b6109528282611032565b5050565b610968610961610ba5565b8383611050565b5050565b61097d610977610ba5565b83610c66565b6109bc576040517f08c379a00000000000000000000000000000000000000000000000000000000081526004016109b390612086565b60405180910390fd5b6109c8848484846111bd565b50505050565b60606109d982610b5a565b60006109e3611219565b90506000815111610a035760405180602001604052806000815250610a2e565b80610a0d84611230565b604051602001610a1e9291906122b4565b6040516020818303038152906040525b915050919050565b6000600560008473ffffffffffffffffffffffffffffffffffffffff1673ffffffffffffffffffffffffffffffffffffffff16815260200190815260200160002060008373ffffffffffffffffffffffffffffffffffffffff1673ffffffffffffffffffffffffffffffffffffffff16815260200190815260200160002060009054906101000a900460ff16905092915050565b600660009054906101000a900473ffffffffffffffffffffffffffffffffffffffff1681565b60007f01ffc9a7000000000000000000000000000000000000000000000000000000007bffffffffffffffffffffffffffffffffffffffffffffffffffffffff1916827bffffffffffffffffffffffffffffffffffffffffffffffffffffffff1916149050919050565b610b6381611308565b610ba2576040517f08c379a0000000000000000000000000000000000000000000000000000000008152600401610b99906120f2565b60405180910390fd5b50565b600033905090565b816004600083815260200190815260200160002060006101000a81548173ffffffffffffffffffffffffffffffffffffffff021916908373ffffffffffffffffffffffffffffffffffffffff160217905550808273ffffffffffffffffffffffffffffffffffffffff16610c208361066e565b73ffffffffffffffffffffffffffffffffffffffff167f8c5be1e5ebec7d5bd14f71427d1e84f3dd0314c0f7b2291e5b200ac8c7c3b92560405160405180910390a45050565b600080610c728361066e565b90508073ffffffffffffffffffffffffffffffffffffffff168473ffffffffffffffffffffffffffffffffffffffff161480610cb45750610cb38185610a36565b5b80610cf257508373ffffffffffffffffffffffffffffffffffffffff16610cda84610490565b73ffffffffffffffffffffffffffffffffffffffff16145b91505092915050565b8273ffffffffffffffffffffffffffffffffffffffff16610d1b8261066e565b73ffffffffffffffffffffffffffffffffffffffff1614610d71576040517f08c379a0000000000000000000000000000000000000000000000000000000008152600401610d689061234a565b60405180910390fd5b600073ffffffffffffffffffffffffffffffffffffffff168273ffffffffffffffffffffffffffffffffffffffff161415610de1576040517f08c379a0000000000000000000000000000000000000000000000000000000008152600401610dd8906123dc565b60405180910390fd5b610dee8383836001611349565b8273ffffffffffffffffffffffffffffffffffffffff16610e0e8261066e565b73ffffffffffffffffffffffffffffffffffffffff1614610e64576040517f08c379a0000000000000000000000000000000000000000000000000000000008152600401610e5b9061234a565b60405180910390fd5b6004600082815260200190815260200160002060006101000a81549073ffffffffffffffffffffffffffffffffffffffff02191690556001600360008573ffffffffffffffffffffffffffffffffffffffff1673ffffffffffffffffffffffffffffffffffffffff168152602001908152602001600020600082825403925050819055506001600360008473ffffffffffffffffffffffffffffffffffffffff1673ffffffffffffffffffffffffffffffffffffffff16815260200190815260200160002060008282540192505081905550816002600083815260200190815260200160002060006101000a81548173ffffffffffffffffffffffffffffffffffffffff021916908373ffffffffffffffffffffffffffffffffffffffff160217905550808273ffffffffffffffffffffffffffffffffffffffff168473ffffffffffffffffffffffffffffffffffffffff167fddf252ad1be2c89b69c2b068fc378daa952ba7f163c4a11628f55a4df523b3ef60405160405180910390a4610ff0838383600161134f565b505050565b60006002600083815260200190815260200160002060009054906101000a900473ffffffffffffffffffffffffffffffffffffffff169050919050565b61104c828260405180602001604052806000815250611355565b5050565b8173ffffffffffffffffffffffffffffffffffffffff168373ffffffffffffffffffffffffffffffffffffffff1614156110bf576040517f08c379a00000000000000000000000000000000000000000000000000000000081526004016110b690612448565b60405180910390fd5b80600560008573ffffffffffffffffffffffffffffffffffffffff1673ffffffffffffffffffffffffffffffffffffffff16815260200190815260200160002060008473ffffffffffffffffffffffffffffffffffffffff1673ffffffffffffffffffffffffffffffffffffffff16815260200190815260200160002060006101000a81548160ff0219169083151502179055508173ffffffffffffffffffffffffffffffffffffffff168373ffffffffffffffffffffffffffffffffffffffff167f17307eab39ab6107e8899845ad3d59bd9653f200f220920489ca2b5937696c31836040516111b09190611980565b60405180910390a3505050565b6111c8848484610cfb565b6111d4848484846113b0565b611213576040517f08c379a000000000000000000000000000000000000000000000000000000000815260040161120a906124da565b60405180910390fd5b50505050565b606060405180602001604052806000815250905090565b60606000600161123f84611538565b01905060008167ffffffffffffffff81111561125e5761125d611ca1565b5b6040519080825280601f01601f1916602001820160405280156112905781602001600182028036833780820191505090505b509050600082602001820190505b6001156112fd578080600190039150507f3031323334353637383961626364656600000000000000000000000000000000600a86061a8153600a85816112e7576112e66124fa565b5b04945060008514156112f8576112fd565b61129e565b819350505050919050565b60008073ffffffffffffffffffffffffffffffffffffffff1661132a83610ff5565b73ffffffffffffffffffffffffffffffffffffffff1614159050919050565b50505050565b50505050565b61135f838361168b565b61136c60008484846113b0565b6113ab576040517f08c379a00000000000000000000000000000000000000000000000000000000081526004016113a2906124da565b60405180910390fd5b505050565b60006113d18473ffffffffffffffffffffffffffffffffffffffff166118a9565b1561152b578373ffffffffffffffffffffffffffffffffffffffff1663150b7a026113fa610ba5565b8786866040518563ffffffff1660e01b815260040161141c949392919061257e565b6020604051808303816000875af192505050801561145857506040513d601f19601f8201168201806040525081019061145591906125df565b60015b6114db573d8060008114611488576040519150601f19603f3d011682016040523d82523d6000602084013e61148d565b606091505b506000815114156114d3576040517f08c379a00000000000000000000000000000000000000000000000000000000081526004016114ca906124da565b60405180910390fd5b805181602001fd5b63150b7a0260e01b7bffffffffffffffffffffffffffffffffffffffffffffffffffffffff1916817bffffffffffffffffffffffffffffffffffffffffffffffffffffffff191614915050611530565b600190505b949350505050565b600080600090507a184f03e93ff9f4daa797ed6e38ed64bf6a1f0100000000000000008310611596577a184f03e93ff9f4daa797ed6e38ed64bf6a1f010000000000000000838161158c5761158b6124fa565b5b0492506040810190505b6d04ee2d6d415b85acef810000000083106115d3576d04ee2d6d415b85acef810000000083816115c9576115c86124fa565b5b0492506020810190505b662386f26fc10000831061160257662386f26fc1000083816115f8576115f76124fa565b5b0492506010810190505b6305f5e100831061162b576305f5e1008381611621576116206124fa565b5b0492506008810190505b6127108310611650576127108381611646576116456124fa565b5b0492506004810190505b606483106116735760648381611669576116686124fa565b5b0492506002810190505b600a8310611682576001810190505b80915050919050565b600073ffffffffffffffffffffffffffffffffffffffff168273ffffffffffffffffffffffffffffffffffffffff1614156116fb576040517f08c379a00000000000000000000000000000000000000000000000000000000081526004016116f290612658565b60405180910390fd5b61170481611308565b15611744576040517f08c379a000000000000000000000000000000000000000000000000000000000815260040161173b906126c4565b60405180910390fd5b611752600083836001611349565b61175b81611308565b1561179b576040517f08c379a0000000000000000000000000000000000000000000000000000000008152600401611792906126c4565b60405180910390fd5b6001600360008473ffffffffffffffffffffffffffffffffffffffff1673ffffffffffffffffffffffffffffffffffffffff16815260200190815260200160002060008282540192505081905550816002600083815260200190815260200160002060006101000a81548173ffffffffffffffffffffffffffffffffffffffff021916908373ffffffffffffffffffffffffffffffffffffffff160217905550808273ffffffffffffffffffffffffffffffffffffffff16600073ffffffffffffffffffffffffffffffffffffffff167fddf252ad1be2c89b69c2b068fc378daa952ba7f163c4a11628f55a4df523b3ef60405160405180910390a46118a560008383600161134f565b5050565b6000808273ffffffffffffffffffffffffffffffffffffffff163b119050919050565b6000604051905090565b600080fd5b600080fd5b60007fffffffff0000000000000000000000000000000000000000000000000000000082169050919050565b611915816118e0565b811461192057600080fd5b50565b6000813590506119328161190c565b92915050565b60006020828403121561194e5761194d6118d6565b5b600061195c84828501611923565b91505092915050565b60008115159050919050565b61197a81611965565b82525050565b60006020820190506119956000830184611971565b92915050565b600081519050919050565b600082825260208201905092915050565b60005b838110156119d55780820151818401526020810190506119ba565b838111156119e4576000848401525b50505050565b6000601f19601f8301169050919050565b6000611a068261199b565b611a1081856119a6565b9350611a208185602086016119b7565b611a29816119ea565b840191505092915050565b60006020820190508181036000830152611a4e81846119fb565b905092915050565b6000819050919050565b611a6981611a56565b8114611a7457600080fd5b50565b600081359050611a8681611a60565b92915050565b600060208284031215611aa257611aa16118d6565b5b6000611ab084828501611a77565b91505092915050565b600073ffffffffffffffffffffffffffffffffffffffff82169050919050565b6000611ae482611ab9565b9050919050565b611af481611ad9565b82525050565b6000602082019050611b0f6000830184611aeb565b92915050565b611b1e81611ad9565b8114611b2957600080fd5b50565b600081359050611b3b81611b15565b92915050565b60008060408385031215611b5857611b576118d6565b5b6000611b6685828601611b2c565b9250506020611b7785828601611a77565b9150509250929050565b600080600060608486031215611b9a57611b996118d6565b5b6000611ba886828701611b2c565b9350506020611bb986828701611b2c565b9250506040611bca86828701611a77565b9150509250925092565b600060208284031215611bea57611be96118d6565b5b6000611bf884828501611b2c565b91505092915050565b611c0a81611a56565b82525050565b6000602082019050611c256000830184611c01565b92915050565b611c3481611965565b8114611c3f57600080fd5b50565b600081359050611c5181611c2b565b92915050565b60008060408385031215611c6e57611c6d6118d6565b5b6000611c7c85828601611b2c565b9250506020611c8d85828601611c42565b9150509250929050565b600080fd5b600080fd5b7f4e487b7100000000000000000000000000000000000000000000000000000000600052604160045260246000fd5b611cd9826119ea565b810181811067ffffffffffffffff82111715611cf857611cf7611ca1565b5b80604052505050565b6000611d0b6118cc565b9050611d178282611cd0565b919050565b600067ffffffffffffffff821115611d3757611d36611ca1565b5b611d40826119ea565b9050602081019050919050565b82818337600083830152505050565b6000611d6f611d6a84611d1c565b611d01565b905082815260208101848484011115611d8b57611d8a611c9c565b5b611d96848285611d4d565b509392505050565b600082601f830112611db357611db2611c97565b5b8135611dc3848260208601611d5c565b91505092915050565b60008060008060808587031215611de657611de56118d6565b5b6000611df487828801611b2c565b9450506020611e0587828801611b2c565b9350506040611e1687828801611a77565b925050606085013567ffffffffffffffff811115611e3757611e366118db565b5b611e4387828801611d9e565b91505092959194509250565b60008060408385031215611e6657611e656118d6565b5b6000611e7485828601611b2c565b9250506020611e8585828601611b2c565b9150509250929050565b7f4e487b7100000000000000000000000000000000000000000000000000000000600052602260045260246000fd5b60006002820490506001821680611ed657607f821691505b60208210811415611eea57611ee9611e8f565b5b50919050565b7f4552433732313a20617070726f76616c20746f2063757272656e74206f776e6560008201527f7200000000000000000000000000000000000000000000000000000000000000602082015250565b6000611f4c6021836119a6565b9150611f5782611ef0565b604082019050919050565b60006020820190508181036000830152611f7b81611f3f565b9050919050565b7f4552433732313a20617070726f76652063616c6c6572206973206e6f7420746f60008201527f6b656e206f776e6572206f7220617070726f76656420666f7220616c6c000000602082015250565b6000611fde603d836119a6565b9150611fe982611f82565b604082019050919050565b6000602082019050818103600083015261200d81611fd1565b9050919050565b7f4552433732313a2063616c6c6572206973206e6f7420746f6b656e206f776e6560008201527f72206f7220617070726f76656400000000000000000000000000000000000000602082015250565b6000612070602d836119a6565b915061207b82612014565b604082019050919050565b6000602082019050818103600083015261209f81612063565b9050919050565b7f4552433732313a20696e76616c696420746f6b656e2049440000000000000000600082015250565b60006120dc6018836119a6565b91506120e7826120a6565b602082019050919050565b6000602082019050818103600083015261210b816120cf565b9050919050565b7f4552433732313a2061646472657373207a65726f206973206e6f74206120766160008201527f6c6964206f776e65720000000000000000000000000000000000000000000000602082015250565b600061216e6029836119a6565b915061217982612112565b604082019050919050565b6000602082019050818103600083015261219d81612161565b9050919050565b6000815190506121b381611b15565b92915050565b6000602082840312156121cf576121ce6118d6565b5b60006121dd848285016121a4565b91505092915050565b7f596f7520646f206e6f742068617665207065726d697373696f6e7320746f207260008201527f756e20746869732066756e6374696f6e21000000000000000000000000000000602082015250565b60006122426031836119a6565b915061224d826121e6565b604082019050919050565b6000602082019050818103600083015261227181612235565b9050919050565b600081905092915050565b600061228e8261199b565b6122988185612278565b93506122a88185602086016119b7565b80840191505092915050565b60006122c08285612283565b91506122cc8284612283565b91508190509392505050565b7f4552433732313a207472616e736665722066726f6d20696e636f72726563742060008201527f6f776e6572000000000000000000000000000000000000000000000000000000602082015250565b60006123346025836119a6565b915061233f826122d8565b604082019050919050565b6000602082019050818103600083015261236381612327565b9050919050565b7f4552433732313a207472616e7366657220746f20746865207a65726f2061646460008201527f7265737300000000000000000000000000000000000000000000000000000000602082015250565b60006123c66024836119a6565b91506123d18261236a565b604082019050919050565b600060208201905081810360008301526123f5816123b9565b9050919050565b7f4552433732313a20617070726f766520746f2063616c6c657200000000000000600082015250565b60006124326019836119a6565b915061243d826123fc565b602082019050919050565b6000602082019050818103600083015261246181612425565b9050919050565b7f4552433732313a207472616e7366657220746f206e6f6e20455243373231526560008201527f63656976657220696d706c656d656e7465720000000000000000000000000000602082015250565b60006124c46032836119a6565b91506124cf82612468565b604082019050919050565b600060208201905081810360008301526124f3816124b7565b9050919050565b7f4e487b7100000000000000000000000000000000000000000000000000000000600052601260045260246000fd5b600081519050919050565b600082825260208201905092915050565b600061255082612529565b61255a8185612534565b935061256a8185602086016119b7565b612573816119ea565b840191505092915050565b60006080820190506125936000830187611aeb565b6125a06020830186611aeb565b6125ad6040830185611c01565b81810360608301526125bf8184612545565b905095945050505050565b6000815190506125d98161190c565b92915050565b6000602082840312156125f5576125f46118d6565b5b6000612603848285016125ca565b91505092915050565b7f4552433732313a206d696e7420746f20746865207a65726f2061646472657373600082015250565b60006126426020836119a6565b915061264d8261260c565b602082019050919050565b6000602082019050818103600083015261267181612635565b9050919050565b7f4552433732313a20746f6b656e20616c7265616479206d696e74656400000000600082015250565b60006126ae601c836119a6565b91506126b982612678565b602082019050919050565b600060208201905081810360008301526126dd816126a1565b905091905056fea26469706673582212209824d499e9a95cdb445734bebbc402e2bca5ecefe37567c8ae23de4518cfdd3664736f6c634300080a0033",
  "immutableReferences": {},
  "source": "// SPDX-License-Identifier: MIT\npragma solidity ^0.8.10;\n\nimport \"@openzeppelin/contracts/token/ERC20/ERC20.sol\";\nimport \"@openzeppelin/contracts/token/ERC721/ERC721.sol\";\nimport \"@openzeppelin/contracts/access/Ownable.sol\";\n\ncontract lottery is ERC20, Ownable {\n\n    // ============================================\n    // Tokens managment\n    // Gestion de los tokens\n    // ============================================\n\n    // Address of the NFT Contract\n    // Direccion del contrato NFT del proyecto\n    address public nft;\n\n    // Constructor \n    constructor() ERC20(\"Lottery\", \"LT\"){\n        _mint( address(this), 5000 );\n        nft = address( new mainERC721() );\n    }\n\n    // Winner of the lottery\n    // Ganador del premio de la loteria\n    address public winner;\n\n    // User registration\n    // Registro del usuario\n    mapping( address => address ) public userContract;\n\n    // Get Tokens ERC-20 price\n    // Obtencion del precio de los tokens ERC-20\n    function priceTokens( uint256 _numTokens ) internal pure returns (uint256) {\n        return _numTokens * (1 ether);\n    }\n\n    // Get user's tokens ERC-20 balance\n    // Visualizacion del balance de tokens ERC-20 de un usuario\n    function balanceTokens( address _account ) public view returns (uint256) {\n        return balanceOf( _account );\n    }\n\n    // Get Smart Contract's tokens ERC-20 balance\n    // Visualizacion del balance de tokens ERC-20 del Smart Contract\n    function balanceTokensSC() public view returns (uint256) {\n        return balanceOf( address(this) );\n    }\n\n    // Get Smart Contract ethers balance\n    // Visualizacion del balance de ethers del Smart Contract\n    function balanceEthersSC() public view returns (uint256) {\n        return address(this).balance / 10**18;\n    }\n\n    // Generation of new Tokens ERC-20\n    // Generacion de nuevos Tokens ERC-20\n    function mint( uint256 _newTokens ) public onlyOwner {\n        _mint( address(this), _newTokens );\n    }\n\n    // User registration\n    // Registro de usuarios\n    function userRegister() internal {\n        address addr_personal_contract = address( new ticketsNFTs(msg.sender, address(this), nft) );\n        userContract[ msg.sender ] = addr_personal_contract; \n    }\n\n    // User information\n    // Informacion de un usuario\n    function usersInfo( address _account ) public view returns (address) {\n        return userContract[ _account ];\n    }\n\n    // Buy tokens ERC-20\n    // Compra de tokens ERC-20\n    function buyTokens( uint256 _numTokens ) public payable {\n        // Registering the user\n        if( userContract[msg.sender] == address(0) ){\n            userRegister();\n        }\n        // Calculate the cost of the tokens to buy\n        uint256 cost = priceTokens( _numTokens );\n        // Filtering if the user has enough money\n        require( msg.value >= cost, \"Buy less tokens o pay with more ethers!\" );\n        // Getting the tokens ERC-20 available\n        uint256 balance = balanceTokensSC();\n        // Filtering if there are enough tokens\n        require( _numTokens <= balance, \"Buy less tokens please!\" );\n        // Regund of excess money\n        uint256 returnValue = msg.value - cost;\n        // Smart Contract returns the money left\n        payable(msg.sender).transfer( returnValue );\n        // Sending the tokens to the user\n        _transfer( address(this), msg.sender, _numTokens );\n    }\n\n    // Refund tokens to Smart Contract\n    // Devolucion de tokens al Smart Contract\n    function returnTokens( uint _numTokens ) public payable {\n        // Filtering the number of tokens greater than 0\n        require( _numTokens > 0, \"You need to return a number of tokens greater than 0!\" );\n        // User must demonstrate having the number of tokens he wants to return\n        require( _numTokens <= balanceTokens(msg.sender), \"You do not have the tokens you want to return!\" );\n        // User transfers tokens to Smart Contract\n        _transfer( msg.sender, address(this), _numTokens );\n        // Smart Contract sends ethers to the user\n        payable(msg.sender).transfer( priceTokens(_numTokens) );\n    }\n\n    // ============================================\n    // Lottery managment\n    // Gestin de la lotera\n    // ============================================\n\n    // Lottery ticket price (in ERC-20 tokens)\n    // Precio del boleto de loteria (en tokens ERC-20)\n    uint public priceTicket = 5;\n\n    // Relationship between someone who buys tickets -> number of tickets\n    // Relacion: persona que compra los boletos -> el numero de los boletos\n    mapping(address => uint []) idUserTickets;\n\n    // Relationship between tickets -> winner\n    // Relacion: boleto -> ganador\n    mapping(uint => address) ADNTicket;\n\n    // Random number\n    // Numero aleatorio\n    uint randNonce = 0;\n\n    // Lottery tickets generated\n    // Boletos de la loteria generados\n    uint [] ticketsGenerated;\n\n    // Buy lottery tickets\n    // Compra de boletos de loteria\n    function buyTickets( uint _numTickets ) public {\n\n        // Total price of tickets\n        // Precio total de los boletos a comprar\n        uint totalPrice = _numTickets * priceTicket;\n        \n        // Checking if the user has enough tokens to buy something\n        // Verificacion de los tokens del usuario\n        require( totalPrice <= balanceTokens(msg.sender), \"You don't have enough tokens. Please buy more!\" );\n        \n        // Token transfer from the user to the Smart Contract\n        // Transferencia de tokens del usuario al Smart Contract\n        _transfer( msg.sender, address(this), totalPrice );\n        \n        for (uint i = 0; i < _numTickets; i++){\n            // Generating the random number using timestamp, the address who buy tickets and the nonce\n            /* \n                Recoge:\n                    - la marca de tiempo (block.timestamp), \n                    - msg.sender \n                    - y un Nonce \n                    (un numero que solo se utiliza una vez, para que no ejecutemos dos veces la misma  funcion de hash con los mismos parametros de entrada) en incremento.\n                \n                Se utiliza 'keccak256 'para convertir estas entradas a un hash aleatorio, convertir ese hash a un uint y luego utilizamos % 10000 para tomar los ultimos 4 digitos,\n                dando un valor aleatorio entre 0 - 9999. \n            */\n            uint random = uint( keccak256(abi.encodePacked(block.timestamp, msg.sender, randNonce))) % 10000;\n            randNonce++;\n\n            // Assign tickets to user\n            // Almacenamiento de los datos del boletos enlazados al usuario\n            idUserTickets[msg.sender].push(random);\n\n            // Storing tickets\n            // Almacenamiento de los datos de los boletos\n            ticketsGenerated.push(random);\n\n            // Assigning tickets to generate a winner later\n            // Asignacion del ADN del boleto para la generacion de un ganador\n            ADNTicket[random] = msg.sender;\n\n            // New NFT token creation for the ticket\n            // Creacion de un nuevo NFT para el numero de boleto\n            ticketsNFTs( userContract[msg.sender] ).mintBoleto(msg.sender, random);\n        }\n    }\n\n    // Get user's tickets\n    function Boletos( address _owner ) public view returns(uint [] memory) {\n        return idUserTickets[ _owner ];\n    }\n\n    // Generation of the lottery winner\n    // Generacion del ganador de la loteria\n    function generateWinner() public onlyOwner {\n        // Declaracion de la longitud del array\n        uint _length = ticketsGenerated.length;\n\n        // Filtering the purchase: at least must be 1 ticket\n        // Verificacion de la compra de al menos de 1 boleto\n        require(_length > 0, \"There are no tickets purchased!\");\n\n        // Generation a random number\n        // Eleccion aleatoria de un numero entre: [0-Longitud]\n        uint random = uint(uint(keccak256(abi.encodePacked(block.timestamp))) % _length);\n        \n        // Choosing a random number\n        // Seleccion del numero aleatorio\n        uint _selected = ticketsGenerated[random];\n\n        // Lottery's winner address\n        // Direccion del ganador de la loteria\n        winner = ADNTicket[_selected];\n\n        // 95% of the prize to winner\n        // Envio del 95% del premio de loteria al ganador\n        payable(winner).transfer(address(this).balance * 95 / 100);\n\n        // 5%  of the prize sent to the owner (benefits)\n        // Envio del 5% del premio de loteria al owner\n        payable(owner()).transfer(address(this).balance * 5 / 100);\n    }\n\n}\n\n// NFT Smart Contract\n// Smart Contract de NFTs\ncontract mainERC721 is ERC721 {\n\n    address public addressLottery;\n    constructor() ERC721(\"Lottery\", \"LT\"){\n        addressLottery = msg.sender;\n    }\n\n    // NFTs creation\n    // Creacion de NFTs\n    function safeMint( address _owner, uint256 _ticket ) public {\n        require( msg.sender == lottery(addressLottery).usersInfo(_owner), \"You do not have permissions to run this function!\" );\n        _safeMint( _owner, _ticket );\n    }\n\n}\n\ncontract ticketsNFTs {\n\n    // Owner information\n    // Datos relevantes del propietario\n    struct Owner {\n        address direccionPropietario;\n        address contratoPadre;\n        address contractNFT;\n        address contratoUsuario;\n    }\n    Owner public owner;\n\n    // Smart Contract (child) constructor\n    // Datos relevantes del propietario \n    constructor( address _owner, address _contractParent, address _contractNFT){\n        owner = Owner(\n            _owner, \n            _contractParent,\n            _contractNFT, \n            address(this)\n        );\n    }\n\n    // Conversion of lottery ticket numbers\n    // Conversion de los numeros de los boletos de loteria\n    function mintBoleto( address _owner, uint _ticket ) public {\n        require( msg.sender == owner.contratoPadre, \"You do not have permissions to run this function\" );\n        mainERC721( owner.contractNFT).safeMint( _owner, _ticket );\n    }\n\n}",
  "sourcePath": "/Users/kiwi/Development/blockchain/02-lottery/src/contracts/lottery.sol",
  "compiler": {
    "name": "solc",
    "version": "0.8.10+commit.fc410830.Emscripten.clang"
  },
  "schemaVersion": "3.4.16",
  "updatedAt": "2024-01-15T15:05:08.896Z",
  "devdoc": {
    "kind": "dev",
    "methods": {
      "approve(address,uint256)": {
        "details": "See {IERC721-approve}."
      },
      "balanceOf(address)": {
        "details": "See {IERC721-balanceOf}."
      },
      "getApproved(uint256)": {
        "details": "See {IERC721-getApproved}."
      },
      "isApprovedForAll(address,address)": {
        "details": "See {IERC721-isApprovedForAll}."
      },
      "name()": {
        "details": "See {IERC721Metadata-name}."
      },
      "ownerOf(uint256)": {
        "details": "See {IERC721-ownerOf}."
      },
      "safeTransferFrom(address,address,uint256)": {
        "details": "See {IERC721-safeTransferFrom}."
      },
      "safeTransferFrom(address,address,uint256,bytes)": {
        "details": "See {IERC721-safeTransferFrom}."
      },
      "setApprovalForAll(address,bool)": {
        "details": "See {IERC721-setApprovalForAll}."
      },
      "supportsInterface(bytes4)": {
        "details": "See {IERC165-supportsInterface}."
      },
      "symbol()": {
        "details": "See {IERC721Metadata-symbol}."
      },
      "tokenURI(uint256)": {
        "details": "See {IERC721Metadata-tokenURI}."
      },
      "transferFrom(address,address,uint256)": {
        "details": "See {IERC721-transferFrom}."
      }
    },
    "version": 1
  },
  "userdoc": {
    "kind": "user",
    "methods": {},
    "version": 1
  }
}